:100000000C9418050C9435050C9435050C941029A6
:100010000C9435050C9435050C9435050C94350578
:100020000C9435050C9435050C9441160C94FD1573
:100030000C94AE220C9435050C9435050C943505C2
:100040000C9435050C9435050C9435050C94350548
:100050000C9435050C9428170C9435050C94350533
:100060000C9435050C9435050C9435050C94350528
:100070000C9435050C9435050C9435050C94350518
:100080000C9435050C9435050C9435050C94350508
:100090000C9435050C9435050C9435050C943505F8
:1000A0000C9435050C9435050C9435052900140085
:1000B0001A0008001500170000002B0004001600AD
:1000C000070009000A000000E1001D001B000600F7
:1000D000190005000000E101E000E000E200E3009B
:1000E00021522C002A00130012000C0018001C00E2
:1000F0000000340033000F000E000D000B00000064
:100100001E7C3800370036001000110000004F0040
:10011000520051005000E70022522C0000001E0047
:100120001F0020002100220000002B012E001E02D3
:100130002E0233022D0000000100240231022502AC
:10014000220221020000390001000100010001002B
:1001500001000100010027002600250024002300E3
:1001600000004C0031002F0026022F023502000053
:1001700001000100300027023002350000000100BC
:100180000100010001000100010001003A003B00F4
:100190003C003D003E003F00000001004A004D00D1
:1001A0004B004E00010000000100010001000100B1
:1001B0000100010000000100010001000100010038
:1001C00063520100450044004300420041004000EA
:1001D0000000010001000100010001000100000019
:1001E0000100010001000100010001000000AE005B
:1001F000A900AA00E600460001000100290036001F
:10020000370013001C00090000002B00040012003E
:10021000080018000C000000E100330014000D007D
:100220000E001B000000E101E000E000E200E3003E
:1002300021522C002A0038000F00150006000A0089
:10024000000034001600110017000B00070000002A
:100250001E7C1D0019001A001000050000004F0050
:10026000520051005000E70022522C0000DA0281B7
:10027000FFD9F1DB20A4A62EAF00A0C0D30000A1BF
:10028000C8D30000AED580A81F408D142000000404
:10029000643214783C1E00010101010101010101D9
:1002A0000202020202020202020303030303030327
:1002B00003040404040404040505050505060606F4
:1002C0000606070707070708080808090909090AB1
:1002D0000A0A0B0B0B0C0C0C0D0D0D0E0E0E0F0F56
:1002E0000F101011111112121313141415151616E4
:1002F0001717181819191A1A1B1B1C1D1D1E1E1F53
:100300002020212222232424252626272829292AA1
:100310002B2C2D2D2E2F30313232333435363738C9
:10032000393A3B3C3D3E3F404142434445464748C5
:10033000494A4C4D4E4F50515354555658595A5B9B
:100340005D5E5F616264656668696B6C6D6F70723B
:10035000737577787A7B7D7E8082838587888A8CA7
:100360008E8F91939596989A9C9EA0A2A3A5A7A9DB
:10037000ABADAFB1B3B5B7BABCBEC0C2C4C6C9CBD2
:10038000CDCFD1D4D6D8DBDDDFE2E4E7E9EBEEF088
:10039000F3F5F8FAFDFFFFAA7F554000AF00AE80ED
:1003A0008182838485868788898A8B8C8D8E8F90C5
:1003B00091929394A0A1A2A3A4A5A6A7A8A9AAAB31
:1003C000ACADAEAFB0B1B2B3B4C0C1C2C3C4C5C6A8
:1003D000C7C8C9CACBCCCDCECFD0D1D2D3D4000AD6
:1003E000000A00959600B5B600979800B7B80005CA
:1003F000010980A101850319012AB700150126B75B
:1004000000950175108100C0050C0901A10185044A
:1004100019012AA002150126A0029501751081007C
:10042000C005010906A101050719E029E715002506
:10043000019508750181029501750881010507196B
:100440000029FF150026FF009506750881000508A4
:1004500019012905150025019505750191029501E0
:1004600075039101C009023B00020100A0FA0904D2
:1004700000000103010100092111010001224400D3
:1004800007058103080001090401000103000000C1
:100490000921110100012232000705820320000119
:1004A0001201000200000008653204000100010290
:1004B00000012203480065006C00690078002000FC
:1004C00072006500760033002000340072006F0077
:1004D0007700730000001403790075007300680052
:1004E00061006B006F0062006F00000004030904EC
:1004F0000000000000003E5B4F5B3E003E6B4F6B18
:100500003E001C3E7C3E1C00183C7E3C18001C57E4
:100510007D571C001C5E7F5E1C0000183C1800000C
:10052000FFE7C3E7FF00001824180000FFE7DBE740
:10053000FF0030483A060E00262979292600407F20
:1005400005050700407F05253F005A3CE73C5A005F
:100550007F3E1C1C0800081C1C3E7F0014227F22CA
:1005600014005F5F005F5F0006097F017F00006687
:1005700089956A0060606060600094A2FFA29400A8
:1005800008047E04080010207E20100008082A1CA1
:100590000800081C2A0808001E10101010000C1E6D
:1005A0000C1E0C0030383E383000060E3E0E0600A1
:1005B00000000000000000005F00000000070007CE
:1005C0000000147F147F1400242A7F2A12002313B2
:1005D00008646200364956205000000807030000F6
:1005E000001C224100000041221C00002A1C7F1C2C
:1005F0002A0008083E080800008070300000080843
:1006000008080800000060600000201008040200D4
:100610003E5149453E0000427F4000007249494931
:1006200046002141494D33001814127F1000274520
:10063000454539003C4A494931004121110907002B
:10064000364949493600464949291E000000140030
:10065000000000403400000000081422410014147F
:100660001414140000412214080002015909060064
:100670003E415D594E007C1211127C007F49494970
:1006800036003E41414122007F4141413E007F49C9
:10069000494941007F09090901003E414151730068
:1006A0007F0808087F0000417F4100002040413F53
:1006B00001007F08142241007F40404040007F023B
:1006C0001C027F007F0408107F003E4141413E0034
:1006D0007F09090906003E4151215E007F09192961
:1006E000460026494949320003017F0103003F408B
:1006F00040403F001F2040201F003F4038403F0047
:100700006314081463000304780403006159494D1D
:100710004300007F414141000204081020000041D5
:1007200041417F000402010204004040404040007B
:100730000003070800002054547840007F284444F8
:100740003800384444442800384444287F00385452
:100750005454180000087E09020018A4A49C7800D4
:100760007F080404780000447D4000002040403DA4
:1007700000007F102844000000417F4000007C04FE
:10078000780478007C080404780038444444380035
:10079000FC182424180018242418FC007C080404E5
:1007A000080048545454240004043F4424003C40AE
:1007B00040207C001C2040201C003C4030403C007D
:1007C0004428102844004C9090907C004464544C81
:1007D000440000083641000000007700000000419E
:1007E000360800000201020402003C2623263C00D9
:1007F00003071F7FFFFFFEF8F0C020F8FEFFFE7921
:10080000271F7FFFFFFEF8F0C020F8FEFFFF7F3FAD
:100810003F7FFFFEF8F0C000000000FFFFFFFFFF7A
:10082000FF00000000000000FF7F7F7FBFBFC0C04F
:10083000C0E0E0E0E0F0F0F0F878787C3C3CFEFED0
:10084000FEFFFFFF000000000000000000008080AD
:10085000BFBFDFDFEFEF0003071F7FFFFFFFFEF8E3
:10086000E0C0E0F8FEFFFFFF7F1F07030000E0F09D
:10087000F0F0E0ECEEF7F37020007C7C7C7E007EF4
:100880007E7E7F7F7F000080C0E07E5B4F5BFEC08E
:100890000000C000DCD7DEDEDED7DC00C0000000D8
:1008A0000000000000000000000000000000000048
:1008B00000000000C1F3CFBF7FFFFFFCFBE781001A
:1008C00000000080E3CF3FFFFFFFFCFBE78100005B
:1008D000000081E7FFFFFFFF3C0000FFFFFFFFFF7D
:1008E000FFF8F8FC7C7E7E3EFEFFFFFFFFFFF7F780
:1008F000F7FBFB7D7D7DBEBEBEDFDFE0E000FFFFDE
:10090000FFFFFFFF00FCFC7C7E7E3E3E1F1F1F0F93
:10091000FFFFFFFFFFFF000000000081E7FFFFFF78
:10092000FFFFFFFFFFFFE7810000000000000F1F37
:100930003F7F7F7F7F7F3F1E0C001F1F1F3F003FB9
:100940003F3F7F7F7F00307B7F7830202030787F73
:100950003B0003000F7F0F0F0F7F0F00030000000D
:100960000000000000000000000000000000000087
:1009700060707C7F7F7F7F1F0601030F3F7F7F7E3C
:100980007C7C7E7F7F7F1F0601070F3F7F7F7E7C01
:100990007C7E7F7F3F0F03000000007F7F7F7F7F93
:1009A0007F000000000000007F7F7F7F7F7F7D7DD4
:1009B0003D3E1E1F1F1F0F0F0707070303007F7F0A
:1009C0007F7F7F7F7C7C7C7C7C7C7C7C7C7C7C00D7
:1009D0007F7F7F7F7F7F004070787E7F7F7F3F0FAC
:1009E0000301030F3F7F7F7F7E787040000000008F
:1009F00000000000000000000000000000000000F7
:100A000000000000000000000000000000000000E6
:100A100000000000000000000000000000000000D6
:100A200000000000000000000000000000000000C6
:100A300011241FBECFEFDAE0DEBFCDBF11E0A0E092
:100A4000B1E0E6E4F7E502C005900D92AE3EB107D5
:100A5000D9F725E0AEEEB1E001C01D92AC3DB20782
:100A6000E1F70E94D5220C94572B0C940000482FDC
:100A70002091CD039091940357E0291302C080E0A8
:100A8000089530E0529FF001539FF00D1124EB5672
:100A9000FC4F8181681306C08081481303C08581A3
:100AA0008111EECF2F5F3F4F2770E7CFE8EDF0E0E9
:100AB00080818E7F80831092E2001092DA00109283
:100AC000E100A0EEB0E08C9181608C9380818F7703
:100AD000808319BCA7EDB0E08C918E7F8C938081D0
:100AE0008F7E808310927F0308952091E4003091DF
:100AF000E50095E6A9012091EC00822F817020FF8E
:100B000006C08091E80080FF06C080E00895209133
:100B1000E80022FD1AC080918A03882389F085307D
:100B200089F08091EB0085FD0FC02091E4003091A9
:100B3000E50042175307F9F29150E1F684E0089579
:100B400082E0089583E0089581E0089580918C0308
:100B500087FF13C08091E80082FF06C08091E80003
:100B60008B778093E80004C080918A038111F2CFD3
:100B7000089580918A038823D9F38091E80080FF4B
:100B8000F8CF8091E8008E77ECCF982F9093E90012
:100B9000242F762F50E0891731F07091EC002091CE
:100BA000ED005091F00021FD07C09F5F973071F775
:100BB0008093E90081E008953091EB003E7F30930F
:100BC000EB003091ED003D7F3093ED003091EB0074
:100BD00031603093EB007093EC002093ED00509364
:100BE000F0002091EE0027FDE0CF80E00895B0E016
:100BF000A0E0EDEFF5E00C944A2AC8EDD0E0888142
:100C00008F7E8883E7EDF0E080818160808384E0DF
:100C100082BF81E080937F0388818E7F888302EE8C
:100C200010E0F80110821092DA0081EEC82ED12C6B
:100C3000F601108288818F77888388818068888315
:100C400088818F7D888319BC10928A0310928B0350
:100C5000109289031092880390EEE92EF12CF7018F
:100C600080818B7F808388818160888342E060E01F
:100C700080E00E94C505F60180818E7F8083F801A7
:100C8000808181608083808188608083F70180819A
:100C90008E7F8083888180618883CDB7DEB7E8E06E
:100CA0000C94662AFC01809192039091930386171D
:100CB0009707A0F06115710529F49091E8009E77DF
:100CC0009093E80090E06115710551F4911108C00E
:100CD0008091E80082FF34C080E00895BC01F2CF2B
:100CE00080918A038823C1F18530C1F18091E800A9
:100CF00083FD30C08091E80082FDEACF8091E8005A
:100D000080FFE1CF8091F3002091F200382F611530
:100D1000710519F02830310558F091E0283031057F
:100D200009F090E02091E8002E772093E800CBCFE7
:100D300081918093F100615071092F5F3F4FE7CFA0
:100D400080918A03882341F0853041F08091E8004A
:100D500083FFBECF81E0089582E0089583E0089587
:100D60000895089508952FB7F89460917B037091CA
:100D70007C0380917D0390917E032FBF0895809125
:100D80005B010895E2EFF1E09191891303C0DF0167
:100D900011971C9291E0E83FF907B1F70895A2EF8F
:100DA000B1E0EFEF90E02D91821751F0EF3F19F491
:100DB000211101C0E92F9F5F9630A9F7EF3F09F499
:100DC00008950E2E000CFF0BE051FE4F8283089514
:100DD000A3E0B0E0EEEEF6E00C94502A2091780308
:100DE0003091790328173907A1F090937903809304
:100DF0007803E0917603F0917703309751F024E087
:100E000029839B838A830084F185E02DCE0101969E
:100E100009952396E2E00C946C2AA3E0B0E0E3E1AC
:100E2000F7E00C94502A2091740330917503281731
:100E30003907A1F09093750380937403E0917603D2
:100E4000F0917703309751F023E029839B838A83C5
:100E50000084F185E02DCE01019609952396E2E00C
:100E60000C946C2A80917203882359F0E0917603E8
:100E7000F0917703309729F00190F081E02D0995EA
:100E8000089580E00895FC01680F791F8FEF91E3CA
:100E90002191822728E030E087FF09C0880F892749
:100EA00021503109C9F7E617F70791F70895880F20
:100EB000F7CFFC01EE0FFF1FE80FF91FE452FD4FC3
:100EC0006183408322830895539A089526E3611134
:100ED00025E383B190E02F7002C0959587952A9500
:100EE000E2F78170089526E3611125E334B12F7094
:100EF00081E090E001C0880F2A95EAF7982F90953D
:100F0000932394B995B1892B85B908959091D60210
:100F1000E92FF0E04091D7029F012F5F3F4F2370F0
:100F2000332742171306A9F0E852FD4F282F2F77D9
:100F300080818078822B60FB87F980839F5F93702C
:100F40009093D6028091D4028F5F8093D40281E087
:100F5000089580E00895EBE9F2E0118282818460D7
:100F600082830895CF9380919E0280FF04C00E94E7
:100F70006011CF910895C091500180915101C8171F
:100F8000B0F780914E019C2F981B892F20E040E004
:100F900060E090E00E945907CF5FEFCF0F931F935F
:100FA000CF93DF93D82F162F042F80919E02C091EC
:100FB000500180FD11C0DF91CF911F910F910895D5
:100FC00080914E019C2F981B892F202F412F6D2F30
:100FD00090E00E945907CF5F80915101C81780F3BC
:100FE0000E94B207E8CFCF93DF93EC014091A102BA
:100FF0009C81892F817090FD842F692F627091FDF3
:10100000642F92FF40E00E94CE078C8190E0019611
:10101000877099278C83DF91CF91089580919E02EC
:10102000982F9C7F61F48370846080939E028091EE
:10103000A102893718F088E78093A10208958835C6
:10104000B0F383708465F1CFB0E0A0E0EAE2F8E0AD
:101050000C944A2A9B01E82FF0E0EA56FD4F31112B
:1010600009C0E4918E2F7E2F6E2FCDB7DEB7E8E05A
:101070000C94662AE32EF12CE491FE2F0E2F10E043
:1010800046E0649FC0011124CFEFD0E0BE010E9472
:101090002C2AAB01822F90E0880F991F25E5249F11
:1010A000B001259F700D1124861B970B982F990F67
:1010B000980FBE016E197F09609FD001619FB00D2E
:1010C000709FB00D11248B2F399F90011124232F75
:1010D0003327BE01621B730B609F9001619F300D2F
:1010E000709F300D11246E01C91AD108CE9CB00139
:1010F000CF9C700DDE9C700D1124672F7727C61BC7
:10110000D70BC09F7001C19FF00CD09FF00C112431
:101110007F2D42305105A1F050F44115510509F4DD
:10112000A3CF4130510581F07B2F832F9DCF4430D9
:10113000510569F080F04630510509F495CFF4CFA0
:10114000EB2F8F2D7F2F90CF7E2FE32F8DCFEF2D85
:101150007B2F8F2F89CF732FEB2FFBCFCF93DF9375
:10116000EC0180919E0280FF10C07091A0026C8102
:101170008091A102893708F088E70E942408962F01
:10118000672F482F892F0E94CE078C818F5F8C8319
:10119000DF91CF910895CF93762FC22F682F842FA0
:1011A0000E942408472F90914E01C91B282F8C2F95
:1011B00090E00E945907CF910895EF92FF921F93FC
:1011C000CF93DF93EC0110E0EE24EA94F12C6091D0
:1011D0005201161770F00E94B2079A818C8190FF1D
:1011E00021C08F5F8C83DF91CF911F91FF90EF9093
:1011F000089520915001210F3327331F4091A10200
:10120000493708F048E770E0C7010E94832A962F0B
:101210008C816091A002199F800D11240E94CB083F
:101220001F5FD5CF8150DECF80E0089581E08093AD
:1012300093020895F894E82FE295EF70F0E031A161
:10124000282F2F7081E090E001C0880F2A95EAF7DF
:10125000982F9095932391A392A1892B82A37894A0
:1012600008950F931F9380917203882329F00E94A1
:10127000B3061F910F9108950E94B3060091680272
:101280001091690220916A0230916B02600F711F08
:10129000821F931FEECF9091A60292FF10C041E0F3
:1012A000282F2471243009F040E031E0282F2871E4
:1012B000283009F030E0431711F02CE0822793FF2B
:1012C00010C041E0282F2471243109F040E031E0C2
:1012D000282F2871283109F030E0431711F02CE055
:1012E00082273091A70230FF10C051E0282F2171D2
:1012F000213009F050E041E0282F2871283009F012
:1013000040E0541711F029E0822731FF10C041E07E
:10131000282F2171213109F040E031E0282F287178
:10132000283109F030E0431711F029E0822794FDBD
:10133000877E089582389105B9F1B0F48133910523
:1013400009F47DC048F48932910509F46DC08A32F0
:10135000910509F47BC008958533910509F45FC0B8
:101360008933910509F10895833E9105D9F138F447
:10137000803E910529F1823E910579F10895863EDE
:101380009105D9F1873E910509F43EC0843E91054F
:1013900041F52091A70221FF24C08091A60284FD7F
:1013A00019C087EE90E008952091A602237009F0FD
:1013B0005AC02091A70223FF14C089E290E008954B
:1013C0002091A60220FD38C03091A70230FF09C04D
:1013D00024FF43C090E080E008952091A60222FD02
:1013E000F7CF08952091A60222FD3AC03091A702BE
:1013F00030FD39C024FFF5CFEDCF2091A60223FFA9
:10140000F0CF24FDE7CFCDCF2091A60223FD2EC043
:101410003091A70231FFEECF84EE90E00895209145
:10142000A60225FFDECFC9CF2091A60225FD21C04F
:101430002091A70223FFD5CF89E390E0D2CF20915E
:10144000A60226FFCECF8AE290E008952091A60260
:1014500026FFC7CF81E390E0089583EE90E00895E2
:1014600082EE90E0089580EE90E0089586EE90E0A0
:10147000089585E390E00895972F7830B8F46730A9
:10148000A8F48430B0F470E027E0929F600D711DE5
:101490001124FB0198E3899FE00DF11D1124EE0F4B
:1014A000FF1FE455FF4F85919491089580E090E0EF
:1014B000089581E0FCCF1F93CF93DF930E949A0998
:1014C000EC01C11580E5D807F0F5C11580E4D80717
:1014D00008F09CC0C03ED10520F5CD3CD10508F0F8
:1014E00082C0C83AD10578F4C53AD10508F073C076
:1014F000C130D10519F1209709F1C430D105F0F4BC
:10150000D0E0C0E01BC0C33CD105D0F7C85AD0E042
:10151000CC0FDD1FCB58DE4F0990D881C02DD4648D
:101520000DC0C11580E2D80708F0D1C0C11581E017
:10153000D80708F05AC0C83ED10510F7CE01DF9198
:10154000CF911F910895C03682E5D80718F5C034B1
:1015500082E5D80708F06BC0C03282E5D80708F0F2
:101560005FC0C11582E5D80708F497C02C2F2695D7
:10157000269580E2289F900111248C2F8370C1E072
:10158000D0E002C0CC0FDD1F8A95E2F7C22BD32B2F
:10159000DD68D4CFC03A82E5D80760F4C03882E570
:1015A000D80708F459C0CF71D0E0DC2FCC27C46F26
:1015B000D06AC4CFC03C82E5D80708F462C0C03E00
:1015C00082E5D80708F09CCFDC2FCC27CC27DF7131
:1015D000C06FD06AB3CFC55AD0E0CE58DE4FC881B5
:1015E000D0E0D064ABCFD065A9CF8D2F0E944B093E
:1015F000182FCE0199270E949A09C12FD0E0DC2F25
:10160000CC27CC27DF71C82BD92B98CFCE019927B7
:101610000E949A09CC27DF70C82BD92BD06A8ECFB5
:10162000CF71D0E0DC2FCC27C16FD06A87CF2C2FB1
:1016300026952695277080E2289F900111248C2FF3
:101640008370C1E0D0E002C0CC0FDD1F8A95E2F7C5
:10165000C22BD32BDC6872CF2C2F269526952770B2
:1016600080E2289F900111248C2F8370C1E0D0E08C
:1016700002C0CC0FDD1F8A95E2F7C22BD32BDA68AC
:101680005DCF8C2F8F710E944B09C82FD0E0DC2FCB
:10169000CC27CC27DF71D06251CF8C2F8F710E9465
:1016A0004B0955E0D695C7955A95E1F7CF70D0E034
:1016B000DC2FCC27282F30E084FF05C044E0220F28
:1016C000331F4A95E1F7C22BD32BD06937CF8D2F2B
:1016D0008F710E944B09182FCE0199270E949A09F9
:1016E000C12FD0E0DC2FCC27CC27DF71C82BD92B22
:1016F000D2CF809590912802982390932802089544
:101700008091CD0390919403981301C008958F5F49
:101710008770FACFB0E0A0E0E0E9FBE00C94492A42
:101720007C010091A8021091A9028091760290910B
:101730007702082B192BCFE0D0E0CC24C394D12C16
:10174000BC2EC6010C2E02C0880F991F0A94E2F726
:1017500080239123892B49F4219790F7B12C8B2D6D
:10176000CDB7DEB7E9E00C94652AB7018C2F0E9453
:101770003C0A0E945B0A019779F3F1CFCF93DF9384
:10178000EC010E948A0BBE010E943C0A0E945B0A87
:10179000DF91CF910895983078F5873068F5E82F7C
:1017A000F0E087E0989FE00DF11D11249E2F9770C7
:1017B00083E0F695E7958A95E1F7EE0FFF1FEE0FB0
:1017C000FF1FE650FE4F50E040E080E0219130E006
:1017D000092E02C0369527950A94E2F72170332727
:1017E000042E01C0220F0A94EAF7822B4F5F5F4F4D
:1017F0004430510559F7089580E00895983098F5E0
:10180000873088F5E82FF0E087E0989FE00DF11D24
:1018100011248E2F877041E001C0440F8A95EAF7AA
:1018200083E0F695E7958A95E1F7EE0FFF1FEE0F3F
:10183000FF1FE650FE4F30E020E070E05191DF01E5
:101840001197CB01022E02C0969587950A94E2F774
:10185000817081958527842385278C932F5F3F4F47
:101860002430310559F708959093A9028093A80276
:10187000089521E030E002C0220F331F8A95E2F77D
:10188000209530958091A8029091A90282239323FC
:101890000E94340C089590911D02809589238093B5
:1018A0001D02282F277069F4891759F09091A7021B
:1018B00092FF07C08695869586950E94390C1092F6
:1018C0001D02089521E030E002C0220F331F8A95E7
:1018D000E2F78091A8029091A902822B932B0E949B
:1018E000340C089590937702809376020895FC015A
:1018F00024812223C1F0808191810E94BE0B9295A8
:101900009F70963091F058F4925F9F70923058F427
:10191000803F19F030F4883E30F481E008959A5FFA
:10192000F4CF843FD1F380E00895883EB0F3813F47
:10193000D1F7F3CFA6E0B0E0E0EAFCE00C944F2A48
:1019400049835A8349815A819923A1F0222391F036
:10195000CA010E948A0B182F682F89819A810E94E0
:10196000FE0B69817A81812F0E943C0A2696E3E072
:101970000C946B2ACA010E94CB0B182FF2CFCF9385
:10198000DF93FC01EB016A3071054CF0CB016AE09A
:1019900070E00E94832ACF010E94BF0CFC01CE019F
:1019A0006AE070E00E94832ADC01A25ABE4F8C914B
:1019B00080831182CF010196DF91CF910895CF935B
:1019C000DF93C091DA05D091DB058A30C1F4209114
:1019D000D103CE01845D9340622F70E00E942C2AD7
:1019E000281B822F66E00E94772AC82FC15018F466
:1019F000DF91CF91089580E20E94DF0CF7CF8D3008
:101A0000E9F4C45DD3402091D103622F70E0CE0190
:101A10000E942C2A281B822F9E01280F311D211580
:101A2000324018F080E0D0E0C0E0C80FD11DCC52A9
:101A3000DC4FD093DB05C093DA05DACF96E0FE01E8
:101A4000A4EDB5E001900D929A95E1F7803E08F47F
:101A500058C086E0FE0111928A95E9F7C091DA0537
:101A6000D091DB0546E050E0BE0184ED95E00E9498
:101A7000E92A9E01245D3340892B41F1C90145E0EB
:101A8000969587954A95E1F741E050E0BA0102C08A
:101A9000660F771F8A95E2F7CB016091D2037091B0
:101AA000D303862B972BB9016B5F7F4FE5E07695CB
:101AB0006795EA95E1F702C0440F551F6A95E2F772
:101AC000842B952B9093D3038093D2032A5F3F4FAF
:101AD0004091D103642F70E0C9010E942C2A481B59
:101AE000463010F4240F311D211572E0370710F035
:101AF00030E020E02C523C4F3093DB052093DA0598
:101B000077CFF6E08F9FB001112460517B4F46E004
:101B100050E0CE010E94D32AA1CFCF93DF93EC01F6
:101B2000FE018491811103C0DF91CF9108950E943D
:101B3000DF0C2196F5CF2091280280911F02282BDF
:101B400080911E02882381F0282B30E082EF91E003
:101B5000FC014191CF0141113F5FF1E0883F9F07B8
:101B6000B9F7311110921E022093F00148E050E0C5
:101B700060E272E080EF91E00E94E92A892BA9F0EF
:101B800088E0E0EFF1E0A0E2B2E001900D928A95EA
:101B9000E1F7E0917603F0917703309731F002801E
:101BA000F381E02D80EF91E00995089510922802CD
:101BB000E2EFF1E086E0DF011D928A95E9F790E01F
:101BC00080E00E940D0790E080E00E94E8061092FD
:101BD0001F020E949B0D0895AAE2B0E0E2EFFDE033
:101BE0000C944F2A8CE893E02091F100FC012193A2
:101BF000CF01F3E084399F07B9F780918D038330DB
:101C000009F470C0B8F4813009F447C0823009F497
:101C1000B5C08091E80083FF89C280918C039091C8
:101C20008D039A3008F082C2E92FF0E0E75AF44DB4
:101C30000C94972A8A3009F490C08B3009F46FC055
:101C4000893039F780918C03813219F780919003A4
:101C5000909191030297E8F68091E800877F809346
:101C6000E8008091E80082FF38C09091F3008091F5
:101C7000F200029731F48091F100813011F086304A
:101C800021F48091F10080935B018091E8008B77D3
:101C90008093E8000E94A605BCCF80918C03813A16
:101CA00009F0B7CF8091E800877F8093E8008091AA
:101CB000900390919103892B61F468E080E893E0B0
:101CC00070E00E9452068091E8008B778093E800D4
:101CD000A0CF60E090E080E0F3CF80918A03811193
:101CE000C0CF97CF80918C03813A09F092CF809139
:101CF000900390919103892B09F08BCF8091E8009C
:101D0000877F8093E8008091E80080FFFCCF80917E
:101D10005C018093F1008091E8008E77B9CF8091CB
:101D20008C03813209F075CF8091900390919103DB
:101D3000892B09F06ECF8091E800877F8093E800BF
:101D40000E94A60581E090918E03911101C080E070
:101D500080935C010E94D60D5CCF80918C03813210
:101D600009F057CF8091E800877F8093E8000E94B8
:101D7000A60580918F0380935A014BCF80918C03ED
:101D8000813A09F046CF8091E800877F8093E80090
:101D90008091E80080FFFCCF80915A01BACF803853
:101DA00099F0823809F0C2C1809190038F7087301A
:101DB00008F0BCC18093E9008091EB0085FB882787
:101DC00080F91092E90006C0809188039091890300
:101DD000911182609091E800977F9093E800809342
:101DE000F1001092F1008091E8008E779BC188236A
:101DF00009F489C1823009F099C180918E03811163
:101E00008CC1809190038F702FEF280F263008F03F
:101E10008DC18093E9002091EB0020FF7EC19330BB
:101E200031F48091EB0080628093EB0076C1909159
:101E3000EB0090619093EB0021E030E001C0220FB5
:101E40008A95EAF72093EA001092EA008091EB006D
:101E50008860EACF81116AC110918E031F7780914B
:101E6000E3008078812B8093E3008091E800877FF6
:101E70008093E8000E94A6058091E80080FFFCCFD7
:101E80008091E30080688093E30082E0111183E099
:101E900080938A034BC18058823008F047C18091FB
:101EA0008E0390918F038C3D23E09207A1F583E090
:101EB0008A838AE289834FB7F894DE01139620E083
:101EC0003EE051E2E32FF0E050935700E49120FF11
:101ED00003C0E295EF703F5FEF708E2F90E0EA3025
:101EE000C0F0C7968D939D932F5F243159F74FBF54
:101EF0008091E800877F8093E8006AE270E0CE017D
:101F000001960E9452068091E8008B778093E8004A
:101F10000DC1C096E7CF4091900350919103292FB6
:101F200033272330310509F444C078F521303105D9
:101F300009F46FC08BE390E0E5E6F4E02230310570
:101F400009F0F4C02091E800277F2093E800209159
:101F50009203309193038217930708F49C0140E0A9
:101F60002115310509F064C0411162C08091E8007B
:101F700082FDC9CF80918A03882329F2853019F226
:101F80008091E80083FFF2CFBECF21323105A9F165
:101F90002232310509F0CAC04115510509F443C088
:101FA0004130510509F0C2C082E390E0EFEEF3E06A
:101FB000C9CF992781309105C1F0009759F0029758
:101FC00009F0B4C0E2EBF4E0E4918E2F90E0E2EB94
:101FD000F4E007C0ECEEF4E0E4918E2F90E0ECEE3C
:101FE000F4E0009709F4A2C0ADCFE6EDF4E0E4918F
:101FF0008E2F90E0E6EDF4E0F4CF4115510571F03D
:102000004130510509F092C089E090E0E0E9F4E048
:1020100099CF82E190E0E0EAF4E094CF89E090E0AB
:10202000E7E7F4E08FCF84E490E0E1E2F4E08ACFE8
:1020300080918A03882309F466CF853009F463CF41
:102040008091E80083FD5FCF8091E80082FD8ECF14
:102050008091E80080FF84CF9091F3008091F2009E
:102060002115310519F08830910550F041E00897AD
:1020700009F040E08091E8008E778093E80070CF0F
:1020800044914093F1003196215031090196E8CFF7
:10209000803809F04BC08091E800877F8093E8008A
:1020A00080918B038093F1009ECE81113FC01091EF
:1020B0008E031230D8F58091E800877F8093E80086
:1020C00010938B030E94A605112311F084E005C034
:1020D0008091E30087FDFACF81E080938A0342E09C
:1020E00061EC81E00E94C50542E261EC82E00E9461
:1020F000C50580918A03843021F081E080935D01E1
:1021000015C082E0FBCF80918E03813079F481E0AD
:10211000933009F080E0809389031092E900809168
:10212000E800877F8093E8000E94A6058091E80080
:1021300083FF0AC08091E800877F8093E800809148
:10214000EB0080628093EB00AA96E3E00C946B2A8C
:10215000882321F00E94790B0E949B0D089588230B
:1021600039F090912802982B909328020E949B0DA1
:102170000895882309F44DC0823879F40E9432070B
:1021800081FF47C089E30E94CF060E949B0D89E32F
:102190000E94C2060E949B0D0895833859F40E9444
:1021A000320780FF36C083E50E94CF060E949B0D58
:1021B00083E5EECF843859F40E94320782FF29C0AC
:1021C00087E40E94CF060E949B0D87E4E1CF9CEF3D
:1021D000980F913AE8F290E2980F983050F4877097
:1021E00091E001C0990F8A95EAF7892F0E94790B37
:1021F000D1CF9BE5980F933028F490E080E00E94C7
:102200000D070895885A8B3120F490E080E00E94F9
:10221000E80608950F931F93CF93DF938B01EA0194
:1022200090918A03943061F58093E9008FEF90914B
:10223000E800815095FD06C095ED9A95F1F70000F4
:102240008111F5CF8091E80085FF1AC00E947505C5
:10225000811111C08091E80085FD06C08091E800E1
:102260008E778093E800F2CFF80181918F018093FF
:10227000F100219779F78091E8008E778093E8004C
:10228000DF91CF911F910F91089543E050E0BC0181
:1022900082E00E940A110895CF93DF93EC0148E099
:1022A00050E0BC0181E00E940A1188E0FE01A0E834
:1022B000B3E001900D928A95E1F7DF91CF910895F7
:1022C0003BB1377F2BB128604FB7F8948CED92E08B
:1022D000FC015191CF0168E02BB9000000C057FF0D
:1022E0003BB9550F000000C000C000C03BB900C0A2
:1022F0006A9591F7F3E082379F0751F74FBF8FE55B
:1023000094E00197F1F700C000000895B0E0A0E06C
:10231000ECE8F1E10C94482A7C015B016A018091B0
:10232000670201E010E08A3010F40AE010E0C1E03A
:10233000D0E0B501C701F6010995811104C02196CD
:102340000C171D072CF4CDB7DEB7EAE00C94642A15
:10235000CC9F9001CD9F300D300D112490E080E096
:1023600045E34A95F1F70000019682179307C1F7FC
:10237000E0CFCF93C82F8823C9F08238C9F40E94D8
:10238000320781FD13C089E30E94CF060E949B0D96
:102390002FEF87EE93E0215080409040E1F700C09E
:1023A000000089E30E94C2060E949B0DCF91089510
:1023B0008338A1F40E94320780FDF8CF83E50E94A4
:1023C000CF060E949B0D2FEF81EE94E021508040BC
:1023D0009040E1F700C0000083E5E4CF8438A1F429
:1023E0000E94320782FDE2CF87E40E94CF060E945E
:1023F0009B0D2FEF81EE94E0215080409040E1F75B
:1024000000C0000087E4CECF8CEF8C0F813A70F4CF
:10241000E2EFF1E088EF91E02191C21799F18E1778
:102420009F07D1F78C2F0E94CF06BECF80E28C0F82
:10243000883068F4C77021E030E001C0220FCA95EF
:10244000EAF780912802822B80932802ADCFEBE53A
:10245000EC0FE33040F4F0E0EE58FE4F808190E066
:102460000E940D07A3CFC85ACB3108F09FCFEC2FA5
:10247000F0E0EE0FFF1FEB58FE4F808191810E942C
:10248000E80694CF8C2F0E94C2060E949B0DCACFF3
:102490000E94D60D2FEF84E39CE0215080409040B5
:1024A000E1F700C0000088E19AE00FB6F894A89523
:1024B000809360000FBE90936000FFCF80E090910A
:1024C000D7022091D602291749F1E92FF0E0E8520E
:1024D000FD4F20819F5F93709093D7028091D5022A
:1024E0008F5F8093D50227FD0BC08AEA0E94B91145
:1024F0008FE39CE90197F1F700C000008AEA0AC067
:1025000089EA0E94B9118FE39CE90197F1F700C0B5
:10251000000089EA0E94B91081E0D1CF0895AB0193
:1025200024E630E0BC0188E70E94E02721E0892B07
:1025300009F020E0822F08958091D0029091D3027B
:10254000911103C091E089270895882369F062E022
:1025500070E08DE993E00E948F12811103C0809199
:10256000D00208951092D0028091D002EBCFCF9389
:10257000C091D0028091D3028823D1F00E94B3068B
:10258000605A75418F4F9F4F6093CC027093CD027C
:102590008093CE029093CF02C11108C062E070E038
:1025A0008BE993E00E948F12811105C0C091D00287
:1025B0008C2FCF91089581E08093D002F7CFB0E0C7
:1025C000A0E0E5EEF2E10C94462A49015A016B01C4
:1025D0007C010E940E088401A4016A2D7B2D88E0F5
:1025E00090E00E94352B94014A2D5B2DB601C70166
:1025F00000E20E94B82A622F83E290E00E94232B1F
:10260000CDB7DEB7ECE00C94622AB0E0A0E0EBE0DE
:10261000F3E10C944B2AD82F062F142FE22E809131
:102620009E0280FF42C020919F022D1308C090910E
:10263000A002961304C09091A102941729F09091E2
:102640009D02926090939D02E82FE695E695AE2F4D
:10265000B0E0A053BE4F9C9190939B028C7F84303E
:1026600049F5812F193708F088E76D2F702F0E94E8
:102670002408962F672F482F892F0E94CE07D093CA
:102680009F020093A0021093A102EE2071F020910E
:102690009E026091A2027091A3023D2FA801809139
:1026A000A4029091A5020E94DF12CDB7DEB7E7E049
:1026B0000C94672A923079F1953069F19B30F9F6E4
:1026C000EB508E2F8170D82EE695F0E0EA56FC4F45
:1026D000C491F12C60915201F61618F00E94B207D5
:1026E000CECFFC9EC001112470E00E942C2A8D2FB9
:1026F000D1100FC0860F209150012F0D3327331FAB
:10270000412F193708F048E7602F0E94CB08F39457
:10271000E1CF861BF0CFD22FB2CFEEE9F2E04381BA
:1027200021E1421B08F440E021E0628181810E94A6
:1027300005130895EEE9F2E0438121E1420F08F428
:102740004FEF21E0628181810E9405130895EEE937
:10275000F2E0628121E1621B08F460E021E0438144
:1027600081810E9405130895EEE9F2E0628121E182
:10277000620F08F46FEF21E0438181810E9405130D
:102780000895EEE9F2E0818121E043816281885081
:102790000E9405130895EEE9F2E0818121E0438172
:1027A0006281885F0E94051308958091A2028823A8
:1027B00019F081508093A20220919E0230919F02D5
:1027C0004091A0025091A1026091A2027091A302D7
:1027D0008091A4029091A5020E94DF120895809139
:1027E000A202833018F48F5F8093A20220919E0290
:1027F00030919F024091A0025091A1026091A202EB
:102800007091A3028091A4029091A5020E94DF1210
:1028100008959091A70292FB222720F9281779F0BA
:1028200080FB92F99093A7026091A6027091A70293
:1028300084E090E00E94412B82E00E944B0C0895BE
:10284000ABE0B0E0E6E2F4E10C94502A88E0EEE977
:10285000F2E0DE01119601900D928A95E1F78091E8
:102860009B0290919C02A0919D0289879A87AB87D9
:102870002B854091630250916402609165027091D2
:1028800066023FB7F89480917B0390917C03A091FE
:102890007D03B0917E033FBF841B950BA60BB70B46
:1028A00084369105A105B10510F4222319F1809118
:1028B0003101909132018A5B9D4F4091300150E08F
:1028C0004C30510510F04BE050E0BE016F5F7F4F80
:1028D0000E94F62A86E090E00E94B629882369F0DB
:1028E0000E94B30660936302709364028093650252
:1028F0009093660210929D0281E02B96E2E00C9488
:102900006C2AA4E0B0E0E7E8F4E10C944F2A40918F
:1029100042025091430260914402709145022FB7E8
:10292000F89480917B0390917C03A0917D03B091FA
:102930007E032FBF841B950BA60BB70B11E08436CB
:102940009105A105B10570F10E9431096E5F7F4FBD
:102950008F4F9F4F69837A838B839C83809129015A
:1029600090912A018A5B9D4F4091280150E04530AB
:10297000510510F044E050E0BE016F5F7F4F0E94B0
:10298000F62A85E090E00E94B629182F882351F09E
:102990000E94B30660934202709343028093440204
:1029A00090934502812F2496E3E00C946B2A4F927A
:1029B0005F927F928F929F92AF92BF92CF92DF925F
:1029C000EF92FF920F931F93CF93DF930F92CDB7A8
:1029D000DEB7C62E4A015901482E880F5508C2019C
:1029E0000E94B629782E882309F480C0C20133E002
:1029F000880F991F3A95E1F7FC01E050FF4F4381A2
:102A000050E04115510511F041E050E080509F4FDA
:102A1000FC01648175816A5B7D4FCE0101960E9445
:102A2000F62AF40140815181628173812FB7F894B5
:102A300080917B0390917C03A0917D03B0917E03F4
:102A40002FBF841B950BA60BB70B84369105A105F0
:102A5000B10540F4B701C8010E9443079981891765
:102A600009F444C00C2C000CDD08C6010E94B629F4
:102A7000782E811113C0712C872D0F90DF91CF918B
:102A80001F910F91FF90EF90DF90CF90BF90AF908C
:102A90009F908F907F905F904F900895C60123E0A4
:102AA000880F991F2A95E1F7FC01E050FF4F438101
:102AB00050E0E416F50608F4A70180509F4FFC0192
:102AC000648175816A5B7D4FC5010E94F62AB7015A
:102AD000C8010E94430799818913CDCF0E94B30694
:102AE000F4016083718382839383C6CFA701B80109
:102AF000C5010E94F62AC0CFA8E0B0E0E2E8F5E107
:102B00000C944C2A88E0E82EF12C0CE412E09E0193
:102B10002F5F3F4F4EE352E063E082E00E94D71404
:102B2000082F882389F190914B0280913D029817DC
:102B300059F110E090914F0280914E028917F1F007
:102B4000E92FF0E0E65BFD4F868187FB662760F9A1
:102B50009F5F937090934F0290914D029F5F90936F
:102B60004D028F770E948607182F8111E3CF84E0F2
:102B700090E00E94B629012F082302C01111F7CF5F
:102B800080914B0280933D02802F2896E6E00C94C2
:102B9000682AA4E0B0E0EFECF5E10C944A2A6B015E
:102BA00084E0E82EF12C07E412E09E012F5F3F4FF6
:102BB00049E352E061E080E00E94D714882361F08D
:102BC00049815A816B817C81409335025093360252
:102BD000609337027093380240913502509136026B
:102BE0006091370270913802F6014083518362830D
:102BF00073832496E8E00C94662A1F920F920FB616
:102C00000F9211242F933F934F935F936F937F9372
:102C10008F939F93AF93BF93CF93DF93EF93FF93E4
:102C2000D091E900DF708091EC00C82FC17080FD69
:102C3000C0E81092E9008091F000877F8093F00057
:102C400078940E94EC0D1092E9008091F000886069
:102C50008093F000CD2BCF70C093E900FF91EF91EE
:102C6000DF91CF91BF91AF919F918F917F916F91A4
:102C70005F914F913F912F910F900FBE0F901F903A
:102C800018951F920F920FB60F9211242F933F9316
:102C90004F935F936F937F938F939F93AF93BF9364
:102CA000EF93FF938091E10082FF09C08091E200E1
:102CB00082FF05C08091E1008B7F8093E1008091CD
:102CC000DA0080FF24C08091D80080FF20C080916E
:102CD000DA008E7F8093DA008091D90080FFAAC04D
:102CE00080E189BD82E189BD09B400FEFDCF81E0AC
:102CF00080938A0380917F03811109C00E94560549
:102D00000E94F7058091E20084608093E200809148
:102D1000E10080FF1AC08091E20080FF16C0809120
:102D2000E2008E7F8093E2008091E20080618093D8
:102D3000E2008091D80080628093D80019BC85E0C1
:102D400080938A0383E080935D018091E10084FF9A
:102D500030C08091E20084FF2CC080E189BD82E117
:102D600089BD99B5892F817090FFFBCF9091D800D4
:102D70009F7D9093D8009091E1009F7E9093E10019
:102D80009091E2009F7E9093E2009091E20091602A
:102D90009093E20090918B03992309F451C094E041
:102DA00090938A0390918A03943009F482E080938F
:102DB0005D018091E10083FF2CC08091E20083FFE0
:102DC00028C08091E100877F8093E10082E08093BA
:102DD0008A0310928B038091E1008E7F8093E10043
:102DE0008091E2008E7F8093E2008091E20080611A
:102DF0008093E20042E060E080E00E94C50580919F
:102E0000F00088608093F00081E080935D01809302
:102E10005C01FF91EF91BF91AF919F918F917F9155
:102E20006F915F914F913F912F910F900FBE0F9037
:102E30001F90189519BC10928A0310927F0367CFD8
:102E40009091E30097FD02C0982FAACF93E0A8CFFE
:102E500078941F921FB61F9211248F939F93AF9364
:102E6000BF9380917B0390917C03A0917D03B091EF
:102E70007E030196A11DB11D80937B0390937C037B
:102E8000A0937D03B0937E03BF91AF919F918F91EB
:102E90001F901FBE1F9018959C014FB7F89480910A
:102EA0007B0390917C03A0917D03B0917E034FBF83
:102EB000821B930B08952FB7F89480917B03909118
:102EC0007C03A0917D03B0917E032FBF08950F93E3
:102ED0001F93CF93DF93C62FD42F022FFC01858140
:102EE0008823A9F06093D0030E945B179093CF03CF
:102EF0008093CE03C77081E001C0880FCA95EAF7BE
:102F00000E94AF10DF91CF911F910F910895809192
:102F1000D003681335C08091CE039091CF030E94F7
:102F20004C17883C910560F510E21D0FCD17B9F0E4
:102F300080E28C0F883040F4C77081E001C0880FB8
:102F4000CA95EAF70E94A810183048F481E09D2F36
:102F5000977001C0880F9A95EAF70E94AF10802FF2
:102F60000E94B911802F0E94B910183058F6D770FE
:102F700081E001C0880FDA95EAF70E94A810C2CF5D
:102F8000C77081E001C0880FCA95EAF7F6CFA6E1C5
:102F9000B0E0EDECF7E10C94412A8091D302882354
:102FA00009F48AC08091D1029091D2020E944C17FC
:102FB000C29708F462C00E945B179093D20280937C
:102FC000D10284ED93E09093DB058093DA05809144
:102FD0007203882309F490C08091A60282FD70C01C
:102FE00083EE93E00E948D0D81EE93E00E948D0DA3
:102FF00086EE93E00E948D0D8091A8029091A90227
:10300000292F33272115310509F465C0C90128E0AE
:10301000AC0174E0569547957A95E1F74115510555
:1030200011F02C5FCA01AC0156954795569547950E
:103030004115510511F02E5FCA0196958795892B90
:1030400009F02F5F622F70E0E9E6F1E0CE01019612
:103050008C013191311141C02A3008F442C0FC0189
:1030600010820E94BF0CF80101900020E9F7CF0107
:1030700001977C010E151F05C8F18091D203909134
:10308000D303892BF1F58091D0028823A9F00E9407
:10309000B3060091CC021091CD022091CE02309166
:1030A000CF02601B710B820B930B6F3F7F4F8F4FD3
:1030B0009F4710F40E949C126696E1E10C945D2AF1
:1030C00089EE93E00E948D0D8FED93E00E948D0DAF
:1030D0008CEE93E08FCF20E09BCFDC013D93CD01C0
:1030E000B8CF20E2DC012D93CD01BBCFD8018D916B
:1030F0008D010E94DF0CBECF8FE993E00E948D0D01
:10310000BCCF8091D302882309F4BDCF8091CB023C
:103110008111B9CF0E94B7122091D2033091D3030D
:103120002115310509F4AFCF80E041E050E0082FD0
:1031300010E07A01082E02C0EE0CFF1C0A94E2F7A0
:10314000B70162237323672B11F48F5FF0CF909147
:10315000CA0290FF9CC0880F880F880F809355018A
:1031600010925801895F8093560183E08093590142
:1031700024E630E047E050E063E571E088E70E9434
:103180009C27892B09F07FCFA80125E0440F551F0C
:103190002A95E1F78091CA0280FF8BC0EAEAF2E04B
:1031A00080E2DF011D928A95E9F7EAEEF1E0FE8BFD
:1031B000ED8B06EE11E08EEEA82E81E0B82E97E0A2
:1031C000392E44244394AD89BE898D91BE8BAD8B3D
:1031D000F80121918F01240F352F311D2C523C4FC6
:1031E000E82FF0E0E655FD4F90E080E0632C681A90
:1031F000742C082E01C0770C0A94EAF76901812C1F
:10320000D6019D906D019720662D68196770562E26
:10321000062E000C770BB92D01C0BB0F5A94EAF7AC
:103220007195619571096770772701C096946A95C9
:10323000EAF79B2A6081562E59285082839468E0D1
:103240008612DECF019631968830910579F68D8908
:103250009E89A816B90609F0B6CF04E610E020E270
:1032600030E04AEA52E060E488E70E942628892B91
:1032700009F009CFE094F0948091D2039091D303A8
:10328000E822F922F092D303E092D203FCCE829599
:10329000880F80768093550198013695279536954D
:1032A000279520935801815E809356012093590100
:1032B0005FCF4C525C4F04E610E020E230E0D3CF09
:1032C00080917203882319F00E945B1708950E9471
:1032D0003109CB01089560919E026695669570E074
:1032E0004BE050E083E491E00E94DC2A892B19F442
:1032F00081E080939C020E946019909396028093D3
:10330000950280919D02846080939D020895909122
:103310009E0290FF3AC09370811138C094609093E0
:103320009E0280919D02816080939D02662391F0B0
:1033300020919E0230919F024091A0025091A102E3
:103340006091A2027091A3028091A4029091A502C3
:103350000E94DF1260919E026695669570E04BE0D8
:1033600050E083E491E00E94DC2A892BB9F00E94AE
:10337000AB0781E08093980220E04091A102609128
:10338000A00280919F020E9405130895863110F0DB
:103390009465C5CF880F880F982BC1CF0E946B19F9
:1033A000E8CF80919E0286958695815009F485E14B
:1033B00061E00E948719089580919E028695869506
:1033C0008F5F863108F081E061E00E9487190895DF
:1033D000B0E0A0E0EEEEF9E10C94482A8C01FC018B
:1033E0008481882341F121E0408151816281738190
:1033F00095810E949A0CEC01FC01E851FC47E730F2
:10340000F105A8F5ED59F44D0C94972A26E241EE0A
:1034100061EEC8010E94671780911D02877059F004
:10342000F8018581882339F08091A70282FF03C0CB
:1034300082E00E944B0CCDB7DEB7EAE00C94642A20
:1034400027E245EE65EEE5CF26E241EE60EEE1CF04
:1034500027E245EE64EEDDCF26E241EE62EED9CF03
:1034600027E245EE66EED5CF28E241E0EBCFF8014A
:103470009581992309F416C41092D0039E01305708
:103480002332310508F0FAC384E090E00E940D2B4E
:103490009093A7028093A602FE01E150F047E2322A
:1034A000F10520F4E659F44D0C94972A8091A60278
:1034B00081608093A60295C08091A7028860809366
:1034C000A7028FC08091A6028260F3CF8091A602EE
:1034D0008460EFCF8091A6028860EBCF8091A70235
:1034E0008160EDCF8091A7028260E9CF8091A60232
:1034F0008061DFCF8091A6028062DBCF8091A6023F
:103500008064D7CF0E94D60D8091A6028068D1CF6B
:103510008091A6028C60CDCF8091A7028360CFCF2F
:103520008091A6028E7FC5CF8091A702877FC7CFEB
:103530008091A6028D7FBDCF8091A6028B7FB9CFEF
:103540008091A602877FB5CF8091A7028E7FB7CFEB
:103550008091A7028D7FB3CF8091A6028F7EA9CFE5
:103560008091A6028F7DA5CF8091A6028F7BA1CFEF
:103570000E94D60D8091A6028F779BCF8091A602E4
:10358000837F97CF8091A7028C7F99CF8091A602ED
:1035900082FB992790F921E0922790FB82F990FB1A
:1035A00083F987CF8091A702982F909591708E7F95
:1035B000892B90FB81F983CF9091A602892F8F7B75
:1035C00096FF806476CF0E94D60D9091A602892F37
:1035D00097FB87F980586DCF61E08EE090E00E9404
:1035E000232B6091A6027091A70284E090E00E94D4
:1035F000412B0E94D60D10CF60E0EFCF9091A60234
:10360000892F8F7E94FF806154CF9091A602892FDD
:103610008E7F90FF81604DCF9091A702892F877F89
:1036200093FF88604CCF85E338C385E345C3809121
:103630009E0280FF1EC0282F2E7F20939E02309175
:103640009F024091A0025091A1026091A20270914C
:10365000A3028091A4029091A5020E94DF120E9411
:10366000AB0780919D02816080939D020E94B2070A
:10367000D3CE816080939E0261E0869586950E94FC
:103680008719CACE882329F00E94D119C5CE882374
:10369000D9F30E94DC19C0CE882329F00E94C113FF
:1036A000BBCE8823D9F30E94CB13B6CE882329F052
:1036B0000E94A713B1CE8823D9F30E94B413ACCED5
:1036C000882329F00E948D13A7CE8823D9F30E9466
:1036D0009A13A2CE882329F00E94D5139DCE882369
:1036E000D9F30E94EF1398CE9E01205E324520321E
:1036F0003105A8F4911115C0CF7181E090E09C01D3
:1037000002C0220F331FCA95E2F7E901622F83E05E
:1037100090E00E94232BCE010E94720C7DCE992353
:1037200081F0C3303CE7D30709F487C008F05BC0E1
:10373000C1159CE7D90709F464C0C130DC4709F41E
:1037400082C0F8018581C081D181882309F489C0B4
:10375000CE010E948A0BF82E682FCE010E94FE0B2C
:10376000BE018F2D0E943C0A0E945B0AD82FC92FF0
:10377000A82EF801C580B680B2943FE0B3228091B4
:103780001D02877009F1FC2CCC20F9F0892F807F75
:10379000803469F080E28D0F8830B0F0892F807E10
:1037A000803229F4F1E0FD1778F4BB2069F08091B4
:1037B000A70282FF09C082E00E944B0C80911D028B
:1037C0008770FF24F3948111F12CEC2EE2942FE00A
:1037D000E2222BE02E1508F4A9C0EE2DF0E0E4570C
:1037E000F44D0C94972ACB35FCE7DF07C1F1CC35BB
:1037F0002CE7D20751F1CA35DC4709F0A2CF81E0AE
:103800002BC00E94D60D8FEF94E3ECE081509040E6
:10381000E040E1F700C0000087E797E790930108D8
:103820008093000888E19AE00FB6F894A8958093F9
:1038300060000FBE90936000FFCF6FEF7FEF90E0CE
:1038400080E00E94412B0E9448128091A70282FBD7
:10385000882780F991E089270E94091472CF80E0BF
:10386000FBCFCE010E94CB0BF82E7ACF3C2F3F70BE
:10387000D32EC07F19F0D29490EFD922CC20B9F08A
:10388000DD2069F080E28D0F883010F0A11009C0B2
:1038900080912802D82AD09228020E949B0D8D2F59
:1038A00043C080911F02D82AD0921F02F6CF8D2FDD
:1038B0000E94B910DD20D1F1D05ED83010F0A110F7
:1038C00004C08D2D0E94790B06C0D09480911F02F8
:1038D000D822D0921F020E949B0D28C08C2F8F707F
:1038E000D82EC07FC03219F0D29480EFD822AA20FF
:1038F00059F091E0A91609F478C0CC2009F484C0ED
:10390000BB2009F446C0CBCF8091A70282FD3DC009
:10391000CC20A9F1DD2039F080912802D82AD0925C
:1039200028020E949B0D80E00E94B911EE2DE85004
:10393000FF0B349710F40E943207FF20A9F080910A
:103940001D0280FD11C0F801158286958695869529
:103950000E94620CC8010E94E81980911D028695A0
:10396000869586950E94390C20E0F80140815181AE
:1039700062817381848195810E949A0C5CCD80E084
:103980000E94B910DD2091F29CCFCC20A1F0B110A3
:1039900004C08D2D0E94AF10C9CFE1E0BE12C6CF8A
:1039A00080911E029D2D9823D91609F4BFCFD82AE5
:1039B000D0921E02BBCFB110B9CF8D2D0E94A8109E
:1039C00090911E028D2D892329F08D2D80958923BC
:1039D00080931E028091F9019D2D982309F4A6CFB2
:1039E000D094D822D092F901A1CFCC2029F0F5E0D3
:1039F000FB1508F49BCFCDCF24E02B1508F496CF10
:103A00008D2D0E94A81092CFBB20D1F339E3A312D1
:103A100009C08FEF97EEE3E081509040E040E1F77E
:103A200000C000008D2F0E94B91080CF8C2F86958A
:103A30008695837069F0813009F078CF8D2F9C2FA7
:103A40009370C11002C080E090E00E94E8066ECF43
:103A50008D2F9C2F9370C11002C080E090E00E94D7
:103A60000D0764CF8C2F837009F03FC0C1105ECF6B
:103A70004D2F429546954770440F440F2D2F2F70C0
:103A800030E0042E02C0220F331F0A94E2F790E0C8
:103A900080E0D4FF09C08FE090E002C0880F991F3A
:103AA0004A95E2F780959095C695C695C370C23049
:103AB00099F078F44091760250917702C13039F054
:103AC000822B932B842395230E94720C2FCF242BBF
:103AD000352B822B932BF8CF822B932B20917602C0
:103AE0003091770282279327EFCF8695CC2011F073
:103AF0008C2F8170882309F419CF4D2F429546955C
:103B00004770440F440F2D2F2F7030E0042E02C059
:103B1000220F331F0A94E2F790E080E0D4FF09C03F
:103B20008FE090E002C0880F991F4A95E2F78095D8
:103B30009095C695C695C370C23099F078F44091BF
:103B4000A8025091A902C13039F0822B932B842313
:103B500095230E94340CEACE242B352B822B932BF9
:103B6000F8CF822B932B2091A8023091A9028227B3
:103B70009327EFCFCF70CC2029F08C2F0E94620CBE
:103B80008D2F08CF8D2F0E94A8108C2F0E94390CEA
:103B9000CDCE8D2FF2EFAF1699F1FA1570F020EF20
:103BA000A216D1F031EFA31691F0CC2009F456C043
:103BB000B11075CE8C2F8F7127C093EFA91639F1F4
:103BC000E4EFAE12F2CF9091A70292FD2EC08C2F9F
:103BD0008F71CC20D9F218C0CC2069F0F4E0FB152D
:103BE00008F4A4CECF7181E090E002C0880F991F45
:103BF000CA95E2F7B8CF25E02B1508F497CEF2CF9F
:103C00008C2F8F71C110C2CF0E94620C8FCE90E0BA
:103C100080E0CC2009F49DCFCF7181E090E002C01C
:103C2000880F991FCA95E2F794CFCC2061F08C2FB2
:103C30008F7192FFE9CF98E0899F90011124236052
:103C400020931D02E1CF81E00E944B0CE1E0EB15D7
:103C500008F06CCE82E00E944B0C68CEBB2059F07D
:103C6000893309F0DFCEFFEF27EE33E0F15020403B
:103C70003040E1F7D5CE8C2F8F7188CF809128020C
:103C8000C631FCE7DF07D9F48A7A91E009F490E0C5
:103C90009093F8018111C7CC89E20E94CF060E945F
:103CA0009B0DBACBC6312CE7D20709F01DCD809110
:103CB000F8018111BACC89E20E94C206F0CF82726B
:103CC000FE01E052F847EB30F10508F00DCDE85663
:103CD000F44D0C94972ACF93DF9380911C02807F40
:103CE00009F04DC080911B02882309F448C0E0917F
:103CF000CD0350919403C0911702D09116026091A8
:103D000018027091190247E05E17C9F18E2F90E0FA
:103D1000E49FF0011124EB56FC4F2481222391F102
:103D2000489FF001499FF00D1124DF01AB56BC4FB5
:103D300011962C9111972C1325C02C912D1322C074
:103D400015962C91159721111DC012962D913C911D
:103D5000261B370B283C3105A8F480911C028F707C
:103D6000806180931C02E556FC4F80818F708061DA
:103D7000808386E192E00E94E8190E94800BDF9127
:103D8000CF910895FC013196E770BECFA4E1B0E079
:103D9000ECECFEE10C94462A8C0186E0F801DE0191
:103DA0001F9601900D928A95E1F7F8018481E580D4
:103DB00096E1A92E92E0B92E90911A02911128C095
:103DC000882319F1EE20F1F0C8010E94770CF82E3B
:103DD0008823C1F087E0F801D50101900D928A9502
:103DE000E1F780911A02813031F4809116029091AE
:103DF00017020E94BE0B0E946B1E8F2D6496ECE092
:103E00000C94622AC8010E94E819FF24F394F5CFAC
:103E1000D080C18082809380F0901B022091180294
:103E200030911902A401421B530BFF2009F4D9C0A1
:103E3000483C510508F092C08823F9F2909117028E
:103E400080911C02282F207F09F056C0C91214C08F
:103E500090911602D91210C0E11048C08F70806195
:103E600080931C0286E192E00E94E81980911C0276
:103E7000F8018683F12CC1CFE11038C06C2D8D2D57
:103E80000E9437056C2D8D2D0E943705E82E81117B
:103E9000F1CFDF86C88A8F8598890E94BE0B292FB3
:103EA00022952F70243058F49F70223088F0992387
:103EB00099F0F8019681907F79F4FE2C9ECF2A5FCD
:103EC0002F70223068F0C8010E94E819EF2CF5CF5E
:103ED000992311F0882389F3805E883070F3F3CF43
:103EE000803F58F3815F833070F7E7CF80911C02E9
:103EF000816080931C02BECFC91207C09091160248
:103F0000D91203C0EE2009F48DC0C8010E94770CBD
:103F1000882309F477CFEE2009F474CF80911C0236
:103F2000803288F020911602309117023987288755
:103F30009B868A8690911A029C871D868E87CE0169
:103F400008960E94E81987E0F801A6E1B2E0019026
:103F50000D928A95E1F70E946B1E57CF90911C023B
:103F6000292F207F51F486E192E00E94E81987E032
:103F7000F50111928A95E9F77DCF882309F43DCFA9
:103F8000809117028C1110C080911602D8120CC0BB
:103F9000E1100AC09683C8010E94E81987E0F50184
:103FA00011928A95E9F729CFC8010E94770C8823DE
:103FB00009F428CFEE2009F425CF80911C0280322D
:103FC00010F220911602309117023A8329839C82C5
:103FD0008B8290911A029D831E828F83CE0101965F
:103FE000B0CF483C5105D0F6882309F40ECFFE2C03
:103FF000EE2009F407CF809117028C1120C0809128
:104000001602D8121CC080911C0280FD0FC0982F90
:10401000907F61F08683903F31F0982F907F905F82
:104020008F70892B8683C8010E94E81987E0F80108
:10403000A6E1B2E001900D928A95E1F7DECEC801CB
:104040000E94770C81117FCF80911C028160809348
:104050001C02C8010E94E819D0CEABE1B0E0E3E356
:10406000F0E20C944E2A4E8B5F8B688F798F8A8F8B
:104070009B8F192F911110921F021D8A86E0FE015D
:104080007696DE011F9601900D928A95E1F70A8DD2
:10409000002341F021E04F85588969897A89C80158
:1040A0000E949A0C0B8B1C8B87E0FE013F96DE0171
:1040B000189601900D928A95E1F7CE0108960E941C
:1040C000C61E81112AC087E0FE013896DE011196D6
:1040D00001900D928A95E1F78C858823F1F020916B
:1040E000940330E0C9010196877099274091CD0370
:1040F00048171906E9F097E0929FD001939FB00D01
:104100001124AB56BC4FFE01319601900D929A9549
:10411000E1F7809394030E94800B17E08091CD0318
:1041200090919403891312C06B96E4E00C946A2A70
:104130000E94D60D109294031092CD0387E0E6E121
:10414000F2E0DF011D928A95E9F7E7CF819FC00178
:1041500011248B569C4F0E94C61E882329F3809100
:10416000CD0390E00196877099278093CD03D6CF39
:10417000A3E1B0E0EEEBF0E20C94452A8E01045F7F
:104180001F4F88E0D8011D928A95E9F78DEAC82E65
:1041900081E0D82EF12CE12CAA24A394B12C28EB99
:1041A000822E21E0922EF60181916F018F3F09F45A
:1041B00042C0F894E82FE295EF70F0E021A18F70F3
:1041C000A50102C0440F551F8A95E2F7CA01922F3C
:1041D000982B91A392A18095892382A3789400C003
:1041E000E1EBF1E0712C31E021912F3F09F4A3C004
:1041F000A22FA295AF70B0E090968C9190E02F70B6
:1042000002C0959587952A95E2F780FD94C0832F8B
:10421000782A330F8E169F0639F7F6013197808181
:104220008F3F11F00E941A0950EA5A95F1F7F801F0
:10423000EE0DFF1D70828FEFE81AF80AA4E0EA166F
:10424000F10409F0B0CF48E050E0B8018CE692E00C
:104250000E94E92A009741F028E0F801ACE6B2E0BC
:1042600001900D922A95E1F70091750210E0075830
:104270001D4F892B09F461C081E080932D020E94BB
:104280005B1790932C0280932B02F12CE090720329
:10429000EE2009F4ACC019821A821B821C82809124
:1042A00067028A3008F06DC049EC55E1BE016F5FCE
:1042B0007F4FC8010E948611882309F487C04CE70C
:1042C00055E1BE016F5F7F4FC8010E9486118823B0
:1042D00009F47CC041E854E1BE016F5F7F4FC80123
:1042E0000E948611882309F471C040E254E1BE01A6
:1042F0006F5F7F4FC8010E948611882309F466C052
:10430000109267028091740290E044E050E0BE0198
:104310006F5F7F4F87589D4F0E94E92A21E02093CD
:104320003402892B09F044C0E12C8E2D8F2963962D
:10433000EDE00C94612A80E06BCFF0902D02FF201D
:1043400009F4A3CF80912B0290912C020E944C176C
:10435000059708F49ACF44E050E06CE672E0C8019B
:104360000E94E92A892B59F084E0ECE6F2E0D801BA
:1043700001900D928A95E1F710922D0287CFF12CD2
:10438000FBCF80912E0290912F020E944C17843F08
:10439000914008F089CF80913402882329F284E08B
:1043A000FE013196DF011D928A95E9F710923402E1
:1043B000E0917402F0E0E758FD4F89819A81AB816A
:1043C000BC8180839183A283B383AFCF8091670246
:1043D0008F3F31F08F5F809367028A3008F492CF6D
:1043E0000E945B1790932F0280932E02D4CF84E01B
:1043F000F801A7E4B2E001900D928A95E1F764E03C
:1044000070E087E492E00E9443078093460288E0D0
:10441000E4EDF2E0ACE4B2E001900D928A95E1F7B0
:1044200068E070E08CE492E00E94430780934B02C6
:104430008090540290905502A0905602B09057027E
:104440008091300290913102A0913202B0913302FA
:1044500088169906AA06BB06B1F0809230029092A7
:104460003102A0923202B09233020E94B306861A41
:10447000970AA80AB90A8092680290926902A092EB
:104480006A02B0926B028BE0E8E5F2E0DE01119681
:1044900001900D928A95E1F72981822F8695869564
:1044A000DA80CB80BC800A851B85109262021123C2
:1044B00009F43BCF10FF0AC090919E0220FF1AC062
:1044C000916090939E0260E00E94871911FF06C0E0
:1044D00020E04B2D6C2D8D2D0E94051312FF04C082
:1044E0000023A9F00E946B1913FF1FCF81E0809376
:1044F00098021BCF9E7F90939E020E94AB078091F3
:104500009D02816080939D020E94B207DFCF0E94CE
:10451000AB07EACFA6E0B0E0E0E9F2E20C944E2A65
:104520000E945B178C018091290290912A028017CA
:10453000910781F019821A820E945B17682F4981C6
:104540005A81792F80E090E00E942D2010932A025A
:10455000009329022696E4E00C946A2A1F921FB663
:104560001F9211248F939F93AF93BF9380917A03EF
:10457000811113C080917B0390917C03A0917D03F6
:10458000B0917E034196A11DB11D80937B03909352
:104590007C03A0937D03B0937E03BF91AF919F9165
:1045A0008F911F901FBE1F901895CDB7DEB72A9729
:1045B0000FB6F894DEBF0FBECDBF85B7806885BF4C
:1045C00085B7806885BF84B7877F84BF0FB6F894AE
:1045D000A8958091600088618093600010926000CF
:1045E0000FBE80E890E00FB6F8948093610090933E
:1045F00061000FBE81E080935D0184E199E09093BA
:10460000EF018093EE010E9456050E94F70580910C
:10461000E20084608093E200789480918A0388238A
:10462000A1F01091E9001F709091EC00892F81702A
:1046300090FD80E8182B1092E9008091E80083FD3E
:104640000E94EC0D1F701093E90082E084BD93E09E
:1046500095BD9AEF97BD80936E00109268021092FC
:10466000690210926A0210926B028091D8008061F8
:104670008093D8002AE12A95F1F700C08091D900F3
:10468000182F117080FD04C00E94560510928A03F5
:104690001093720322982A9A579A5F9835E03A95B8
:1046A000F1F7000083B182FB882780F957985F9A61
:1046B00040EA4A95F1F78093730380933801882389
:1046C00009F437C210924E0189E180934F01809125
:1046D000720381110E94CA28E4EDF2E088E0DF0154
:1046E0001D928A95E9F78091380191E0892780939E
:1046F0008F0280913801909392028091380160E09E
:1047000080E00E94730761E080E00E947307EFE899
:10471000F1E03197F1F700C0000010E080919202C3
:10472000181708F40AC2809138018091380194E08A
:10473000811190E09093750284E0891B809374024C
:1047400084E90E941A0986E60E941A0987E90E94F4
:104750001A0986EC0E941A0901EB11E0F8EBEF2E22
:10476000F1E0FF2ED8018D918D018F3F11F00E9455
:104770001A09E016F106B1F788E0E9E7F2E0DF0197
:10478000282F1D922A95E9F7ECE6F2E0DF011D9251
:104790008A95E9F790E080E00E940D2B853E9E4FC0
:1047A00009F461C065EE7EEF90E080E00E94412B4D
:1047B00060E082E090E00E94232B81E090E0909303
:1047C00077028093760261E083E090E00E94232BE1
:1047D00060E074E184E090E00E94412B60E086E0BC
:1047E00090E00E94232B60E087E090E00E94232B62
:1047F00040E050E0BA0188E090E00E94352B60E094
:1048000083E290E00E94232B60E08CE090E00E9425
:10481000232B60E08DE090E00E94232B19821A8206
:104820001B821C821D821E821F82188648E050E077
:1048300067E170E0CE0101960E94132B40E050E04A
:10484000BA018FE190E00E94352B40E050E0BA01C0
:104850008FE090E00E94352B40E050E0BA0183E108
:1048600090E00E94352B82E090E00E94FF2A809326
:10487000810284E090E00E940D2B9093A702809328
:10488000A60283E090E00E94FF2A90E00E94720C52
:104890001092CA0280E88093D1030E9468276BE0DF
:1048A00070E083E892E00E948F128823E9F1809102
:1048B000CA0265E070E081FD52C18EE792E00E947D
:1048C0008F12882389F16DE070E08CE692E00E94FF
:1048D0008F12882349F10E94B306605A75418F4FA9
:1048E0009F4F6093CC027093CD028093CE02909341
:1048F000CF02E4EDF3E080E092E0DF019C011D9245
:1049000021503040E1F7F093DB05E093DA058FEFBB
:104910009FEF9093D3038093D20381E08093D302DF
:104920008093D0021092CB0280917802811186C0D0
:1049300088E090E00E94072B4B015C0183E290E04D
:104940000E94FF2A282F30E040E050E060E070E055
:1049500080E090E000E20E949D2A282939294A2916
:104960005B2920939E0230939F024093A0025093B4
:10497000A1026093A2027093A3028093A402909379
:10498000A50230919D02336030939D022C7F09F087
:1049900043C025E020939E0210929F022FEF2093A8
:1049A000A00228E72093A1021092A20225E030E0A5
:1049B0004FEF58E760E00E94DF1288E090E00E942D
:1049C000072B6B017C0183E290E00E94FF2A282FD5
:1049D00030E040E050E060E070E080E090E00E9475
:1049E0009D2AB22FA32FF42FE52F5B01970186019B
:1049F000BC29A12BFE29E32BB0939E02A0939F021A
:104A0000F093A002E093A1026093A202B092A302ED
:104A10008093A4029093A5020E940E080E94AB0707
:104A20000E94640780919E0280FF05C060E0869529
:104A300086950E94871981E08093780280917203A5
:104A4000811102C00E94CD2889E391E09093770301
:104A50008093760361E8662E62E0762E74E0C72EBE
:104A6000D12CEAE8AE2EE2E0BE2E80918A0310E45B
:104A7000853009F4AEC00E94B82002E812E049E790
:104A8000E42E42E0F42E58EB852E51E0952EB40131
:104A90009701F8019191D9018D919D01DB014D9113
:104AA000BD018423AE16BF0609F49DC0981791F38B
:104AB000B0917203B987412CF70151907F01D40165
:104AC0008D914D015822F80181918F01851541F199
:104AD000312C2224239485258A878A858221C1F05E
:104AE000F985FF23A9F039824A820E945B179C83D3
:104AF0008B8321E02D8391E0822D852109F490E0C4
:104B00009E8349815A816B817C818D810E942D20F9
:104B10003394220C37E03312E0CFF8013197508202
:104B2000439448E04412C8CF0E943109552453945D
:104B30005FC089E180934E01C8CD60E0812F0E9463
:104B40006607082F61E0812F0E946607E12FF0E0E1
:104B5000E057FD4F880F802B80831F5FDFCD89E7F3
:104B600092E0ADCE80918A03843029F10E949C129C
:104B700010927A0388E190E00FB6F894A89580939C
:104B800060000FBE1093600083B7817F846083BF95
:104B900083B7816083BF7894889583B78E7F83BF06
:104BA0000FB6F894A89580916000886180936000AA
:104BB000109260000FBE0E94B820E9E7F2E0A8EB77
:104BC000B1E081919D91892309F013C16E167F0692
:104BD000C1F780918A03853009F4C4CF0E94D60DB5
:104BE0000E94320748CF981363CF0E948A22512C2B
:104BF00080919C02882309F465C080919B02E0911A
:104C00009E02E695E695E81BE0939702823009F054
:104C100084C0F0E0ED56FD4FE4910E2F10E03EEA27
:104C2000E32E38E0F32E80919802882361F01092F1
:104C300098020E94601990939602809395021092B8
:104C40009A02109299020E946019E0919502F091E7
:104C500096029C012E1B3F0B2F3F3F4798F520915A
:104C60008C022223B1F010928C0220918A023091A2
:104C70008B02821B930B8F3F9F4758F4205D3A486D
:104C800030938B0220938A0280919D0288608093EA
:104C90009D028090990290909A020E0F1F1F109310
:104CA00096020093950285E992E0F70109958091BB
:104CB000990290919A02892B29F4892819F0F1E040
:104CC000F0938C0290907203992019F00E945E126A
:104CD000982E80919302882351F010929302809134
:104CE000D6028093D7028091D4028093D502E12C22
:104CF00080919202E81688F180917203882319F05E
:104D00000E945E12982A992009F463C00E9431091A
:104D10000E94C7170E94B71260C0853061F4E69503
:104D2000F0E0E057FD4FE4910E2F10E02DEDE22E64
:104D300028E0F22E78CF853149F4EEE8F2E00591D3
:104D4000149193EFE92E97E0F92E6DCF00ED17E067
:104D500080EBE82E86E0F82E66CF61E08E2D0E9473
:104D60006607182F60E08E2D0E946607E12FEE0F78
:104D70008E2B0E2D10E0D801A057BD4FEC919E2F29
:104D80009370891721F1EE0FEE0FE82BEC938091D1
:104D90008F028E0DEF70F0E0E054FE4F03571D4F71
:104DA000F080D8019C91F90EFC92B3E060E0BF1551
:104DB00024F0EDEFFE161CF461E00E9486078F2DB3
:104DC000FF0C990BB6010E94832AD8018C93E394BF
:104DD0008FCF0E94C71751109DCF0E94320790912C
:104DE0009402891709F441CE809394020E94B3067D
:104DF0003CCE80918903882309F4EBCE90E199BDE4
:104E0000A2E1A9BD09B400FEFDCF8091D8008F7D3D
:104E10008093D8008091E00082608093E0008091D0
:104E2000E00081FDFCCF0E94D60DD3CEEF92FF9221
:104E30000F931F93CF93DF93182FEB011092BC00B9
:104E400084EA8093BC000E945B177C018091BC00C7
:104E500087FF27C08091B900887F883029F0809132
:104E6000B900887F803189F51093BB0084E8809376
:104E7000BC000E945B178C018091BC0087FF1EC0A4
:104E80002091B900287F90E080E0283191F081E006
:104E900090E0203411F490E080E0919581959109A3
:104EA00008C0C7010E944C17C817D90778F68EEFC3
:104EB0009FEFCDB7DEB7E6E00C94682AC8010E94E8
:104EC0004C17C817D907C0F6F2CF8FEF9FEFF1CF7D
:104ED0001092B9008CE08093B80008950F931F934F
:104EE000CF93DF93EB018093BB0084E88093BC00F9
:104EF0000E945B178C018091BC0087FF11C020913C
:104F0000B900287F81E090E0283211F490E080E041
:104F1000919581959109DF91CF911F910F910895FE
:104F2000CF3FDC0741F3C8010E944C17C817D907CF
:104F300010F78EEF9FEFEFCFB0E0A0E0E2EAF7E2EC
:104F40000C94452A782E5B016A0189010E945B1747
:104F50004C01C1E0D0E00431110558F0C5E0D0E0CB
:104F60000F3F100731F0C80164E170E00E942C2A65
:104F7000EB01BE01872D0E9416277C0197FF09C017
:104F80000F3F1007B1F3C4010E944C17081719070F
:104F900080F7E501CA0CDB1CCC15DD0511F0F7FE2E
:104FA00009C084E98093BC00C701CDB7DEB7EDE04E
:104FB0000C94612AB80189910E946E277C01ECCF84
:104FC000B0E0A0E0E6EEF7E20C94452A782E5B0113
:104FD0006A0189010E945B174C01C1E0D0E00431F5
:104FE000110558F0C5E0D0E00F3F100731F0C801BF
:104FF00064E170E00E942C2AEB01BE01872D0E9423
:1050000016277C0197FF09C00F3F1007B1F3C401B9
:105010000E944C170817190780F7E501CA0CDB1C22
:10502000CC15DD0511F0F7FE09C084E98093BC00C2
:10503000C701CDB7DEB7EDE00C94612AFE01849183
:10504000B8010E946E277C012196EACFB0E0A0E073
:10505000ECE2F8E20C94442A682E762E5A0169019B
:105060000E945B174C01C1E0D0E00431110558F0FB
:10507000C5E0D0E00F3F100731F0C80164E170E0F7
:105080000E942C2AEB01BE01862D0E9416277C016E
:1050900097FF1DC00F3F1007B1F3C4010E944C17CA
:1050A0000817190780F784E98093BC00C701CDB7C2
:1050B000DEB7EEE00C94602AB80189910E946E2759
:1050C0007C01CC16DD0679F3F7FEF6CFECCFB80104
:1050D000872D0E946E277C01E501CA0CDB1CF1CFF5
:1050E0008EE14A9B02C08150E1F74A9BFECF0895B2
:1050F0005A9880E28A95F1F75A9A0895FC013BE0AC
:105100003A95F1F798E020E080E031E040E14A95FF
:10511000F1F7880F4A9B02C08160232742E04A953D
:10512000F1F7000040E14A95F1F7915079F790E1ED
:105130009A95F1F799B132E03A95F1F7000040E124
:105140004A95F1F792FB992790F992272081920FC7
:1051500090830895A1E0B0E0E0EBF8E20C944C2AD3
:1051600019828C017C01E60EF11C0E151F0541F41D
:1051700081E09981911180E02196E6E00C94682A03
:105180000E947028CE0101960E947E28F80181932A
:105190008F01EBCF529A5A9A089552985A9AEA9AE6
:1051A000E9E6F0E080818F7C808308956150770B81
:1051B00091E001C0990F6A95EAF720E031E0911182
:1051C00008C0222391F05A9A80E28A95F1F75A9802
:1051D0000895492F482339F05A9A232740E24A95E7
:1051E000F1F79695ECCF5A98F9CF5A98EDCFFF92F8
:1051F0000F931F93CF93DF93EC018C01060F111DCA
:10520000C017D10729F4CDB7DEB7E5E00C94692AC1
:10521000F9900E94782868E08F2D0E94D628F0CF60
:105220001F920F920FB60F9211240F931F932F937B
:105230003F934F935F936F937F938F939F93AF931E
:10524000BF93EF93FF93CF93DF930F92CDB7DEB76A
:1052500019820E947028CE0101960E947E28082F94
:10526000069506950695282F22952570902F957006
:10527000290F922F937026952695920F9827977055
:105280008981982B09F05CC0083008F059C080E192
:105290008A95F1F75A9A529A82E08A95F1F700C0FE
:1052A0005A9888E0089F80011124D801A050BF4F70
:1052B0001696ED91FC9117973097A9F06091AB018C
:1052C0007091AC0114962D913C911597260F371FC4
:1052D00011968D919C911297680F791F13964C919E
:1052E00013978C910995F801E050FF4F6381662375
:1052F00051F02091AB013091AC0184819581820FF6
:10530000931F0E94F7280E94782880E18A95F1F780
:105310005A9852985A9A80E18A95F1F7F801E0502C
:10532000FF4F6081662351F02091AB013091AC01B9
:1053300081819281820F931F0E94AA280E94702867
:105340000F90DF91CF91FF91EF91BF91AF919F911E
:105350008F917F916F915F914F913F912F911F910D
:105360000F910F900FBE0F901F9018950F931F93E2
:10537000CF93DF93EC0108970CF04CC0F894529A4D
:105380005A9885E08A95F1F700009C2F96959570C4
:105390008C2F8570980F892F83709695969523E0B2
:1053A000CC0FDD1F2A95E1F7980F8E01092B0E9483
:1053B000782800C068E0802F0E94D62880E18A9576
:1053C000F1F752985A9A4A9B1EC087E090E04A999A
:1053D0001CC0FE01E050FF4F63816623F9F020916D
:1053E000AB013091AC0184819581820F931F0E94A3
:1053F000AA28811113C0529A5A9A7894DF91CF91BA
:105400001F910F91089500C0DECF019729F4529AA1
:105410005A9A789480E0F2CF00C0D9CF0E947028C9
:1054200080E28A95F1F75A98529A80E18A95F1F7CD
:10543000C050DF4F6881662351F02091AB0130915D
:10544000AC0189819A81820F931F0E94F7280E94E4
:105450007828789481E0D2CFAA1BBB1B51E107C00A
:10546000AA1FBB1FA617B70710F0A61BB70B881FF4
:10547000991F5A95A9F780959095BC01CD01089583
:105480002F923F924F925F926F927F928F929F9254
:10549000AF92BF92CF92DF92EF92FF920F931F9342
:1054A000CF93DF93CDB7DEB7CA1BDB0B0FB6F894F3
:1054B000DEBF0FBECDBF09942A88398848885F8433
:1054C0006E847D848C849B84AA84B984C884DF80A4
:1054D000EE80FD800C811B81AA81B981CE0FD11D88
:1054E0000FB6F894DEBF0FBECDBFED010895991B36
:1054F00079E004C0991F961708F0961B881F7A95CB
:10550000C9F78095089597FB072E16F4009407D0ED
:1055100077FD09D00E942C2A07FC05D03EF4909517
:1055200081959F4F0895709561957F4F0895EE0F77
:10553000FF1F0590F491E02D0994002E083090F0A3
:10554000982F872F762F652F542F432F322F222706
:105550000850F4CF220F331F441F551F661F771FBB
:10556000881F991F0A95B2F7002D089597FD109492
:10557000002E083098F00850232F342F452F562F37
:10558000672F782F892F912DF4CF159497958795B4
:105590007795679557954795379527950A95AAF773
:1055A0001124002D0895FB01DC0102C005900D922D
:1055B00041505040D8F70895FC014150504030F020
:1055C00001900616D1F73197CF01089588279927C2
:1055D0000895FB01DC0104C08D910190801921F434
:1055E00041505040C8F7881B990B0895FB01DC011E
:1055F00002C001900D9241505040D8F70895F9999A
:10560000FECF92BD81BDF89A992780B50895A6E195
:10561000B0E044E050E00C94492BA8E1B0E042E057
:1056200050E00C94492BDC01A40FB51F41505040B1
:1056300048F0CB01840F951F2E910E94242B4150DE
:105640005040D0F70895262FF999FECF92BD81BD25
:10565000F89A019700B4021639F01FBA20BD0FB6B0
:10566000F894FA9AF99A0FBE08950396272F0E948C
:10567000242B0E94232B252F0E94242B242F0C94B3
:10568000242B0196272F0E94242B0C94232BDC0122
:10569000CB01FC01F999FECF06C0F2BDE1BDF89A3D
:1056A000319600B40D9241505040B8F70895F894E7
:1056B000FFCFCF0EF70E9610F70E96102A0F4B0F56
:1056C000961048105510241A281A061A201A2C1A57
:1056D000301A341A901A051B981A621A661A9C1A04
:1056E0006A1AA01AAC1A761AFE1A7A1AB01A7E1A18
:1056F000B41ADC1A821AB81AE31A881ABE1AC61A21
:105700006E1AA41A721AA81A8C1AC21AD21AEC1A91
:10571000FC1A5C1A941A0C1B361C361C6E1C6E1C70
:10572000161D961C961C961C321DBA1DC91DC91D3E
:10573000171B421B471B4C1B511B561B5B1B601B43
:06574000651B6A1B6F1BD4
:10574600000000010000000000000004010000004D
:10575600000000010500000000000008060000002F
:105766000000000000001609040E00000000000002
:105776000B1200000000000001BF064C11B206B17A
:10578600064511010B0C0D0E0F10111213140032E9
:105796000032320021007F22000300000100303178
:1057A600323334353637383900204C617965723AF0
:1057B6002000818283E200E900EA00B500B600B766
:1057C60000CD008301CC008A0192019401210223BD
:1057D6000224022502260227022A02B300B4006F21
:1057E6000070009F01CB019F02A0024602946697BB
:1057F600C6F4F5F6F73133323F3F3F7F3F3F3F7FF9
:1058060000FF0100010000FFFF0000010001FF0092
:1058160000010202020505050505050B0B0B0B0B26
:0E5826000B0B0B0B0B150008101818100800C8
:00000001FF
