:100000000C9418050C9435050C9435050C94A62811
:100010000C9435050C9435050C9435050C94350578
:100020000C9435050C9435050C94D8160C94941644
:100030000C9449230C9435050C9435050C94350526
:100040000C9435050C9435050C9435050C94350548
:100050000C9435050C94B1170C9435050C943505AA
:100060000C9435050C9435050C9435050C94350528
:100070000C9435050C9435050C9435050C94350518
:100080000C9435050C9435050C9435050C94350508
:100090000C9435050C9435050C9435050C943505F8
:1000A0000C9435050C9435050C9435052900140085
:1000B0001A0008001500170000002B0004001600AD
:1000C000070009000A000000E1001D001B000600F7
:1000D0001900050000002352E000E101E300E20006
:1000E00021522C002A00130012000C0018001C00E2
:1000F0000000340033000F000E000D000B00000064
:100100001E7C3800370036001000110000004F0040
:10011000520051005000E60022522C0001001E0047
:100120001F0020002100220000002B0167001E029A
:100130002E0256002D020000010024023102250289
:10014000220221020000390001000100010001002B
:1001500001000100010027002600250024002300E3
:1001600000004C0033022F022F002602350200004F
:100170000100310030023000270235000000AE00DF
:10018000A900AA0000000100235201003A003B0030
:100190003C003D003E003F00000001004B004E00CF
:1001A0004A004D00010000000100010001000100B3
:1001B0000100010000000100010001000100010038
:1001C000235201004500440043004200410040002A
:1001D0000000010001000100010001000100000019
:1001E0000100010001000100010001000000AE005B
:1001F000A900AA00AB004600010001003A003B0044
:100200003C003D003E003F0000000100007C01007A
:10021000037C010001000000010001000100010059
:100220000100157000000100010001000100010043
:10023000010001004500440043004200410040002D
:1002400000004C000100010001000100010000005D
:10025000277825782378207801001470000028780A
:1002600026782478217801000100010000DA02815B
:10027000FFD9F1DB20A4A62EAF00A0C0D30000A1BF
:10028000C8D30000AED580A81F408D142000000404
:10029000643214783C1E00010101010101010101D9
:1002A0000202020202020202020303030303030327
:1002B00003040404040404040505050505060606F4
:1002C0000606070707070708080808090909090AB1
:1002D0000A0A0B0B0B0C0C0C0D0D0D0E0E0E0F0F56
:1002E0000F101011111112121313141415151616E4
:1002F0001717181819191A1A1B1B1C1D1D1E1E1F53
:100300002020212222232424252626272829292AA1
:100310002B2C2D2D2E2F30313232333435363738C9
:10032000393A3B3C3D3E3F404142434445464748C5
:10033000494A4C4D4E4F50515354555658595A5B9B
:100340005D5E5F616264656668696B6C6D6F70723B
:10035000737577787A7B7D7E8082838587888A8CA7
:100360008E8F91939596989A9C9EA0A2A3A5A7A9DB
:10037000ABADAFB1B3B5B7BABCBEC0C2C4C6C9CBD2
:10038000CDCFD1D4D6D8DBDDDFE2E4E7E9EBEEF088
:10039000F3F5F8FAFDFFFFAA7F554000AF00AE80ED
:1003A0008182838485868788898A8B8C8D8E8F90C5
:1003B00091929394A0A1A2A3A4A5A6A7A8A9AAAB31
:1003C000ACADAEAFB0B1B2B3B4C0C1C2C3C4C5C6A8
:1003D000C7C8C9CACBCCCDCECFD0D1D2D3D4000AD6
:1003E000000A00959600B5B600979800B7B80005CA
:1003F000010980A101850319012AB700150126B75B
:1004000000950175108100C0050C0901A10185044A
:1004100019012AA002150126A0029501751081007C
:10042000C005010906A101050719E029E715002506
:10043000019508750181029501750881010507196B
:100440000029FF150026FF009506750881000508A4
:1004500019012905150025019505750191029501E0
:1004600075039101C009023B00020100A0FA0904D2
:1004700000000103010100092111010001224400D3
:1004800007058103080001090401000103000000C1
:100490000921110100012232000705820320000119
:1004A0001201000200000008653204000100010290
:1004B00000012203480065006C00690078002000FC
:1004C00072006500760033002000340072006F0077
:1004D0007700730000001403790075007300680052
:1004E00061006B006F0062006F00000004030904EC
:1004F0000000000000003E5B4F5B3E003E6B4F6B18
:100500003E001C3E7C3E1C00183C7E3C18001C57E4
:100510007D571C001C5E7F5E1C0000183C1800000C
:10052000FFE7C3E7FF00001824180000FFE7DBE740
:10053000FF0030483A060E00262979292600407F20
:1005400005050700407F05253F005A3CE73C5A005F
:100550007F3E1C1C0800081C1C3E7F0014227F22CA
:1005600014005F5F005F5F0006097F017F00006687
:1005700089956A0060606060600094A2FFA29400A8
:1005800008047E04080010207E20100008082A1CA1
:100590000800081C2A0808001E10101010000C1E6D
:1005A0000C1E0C0030383E383000060E3E0E0600A1
:1005B00000000000000000005F00000000070007CE
:1005C0000000147F147F1400242A7F2A12002313B2
:1005D00008646200364956205000000807030000F6
:1005E000001C224100000041221C00002A1C7F1C2C
:1005F0002A0008083E080800008070300000080843
:1006000008080800000060600000201008040200D4
:100610003E5149453E0000427F4000007249494931
:1006200046002141494D33001814127F1000274520
:10063000454539003C4A494931004121110907002B
:10064000364949493600464949291E000000140030
:10065000000000403400000000081422410014147F
:100660001414140000412214080002015909060064
:100670003E415D594E007C1211127C007F49494970
:1006800036003E41414122007F4141413E007F49C9
:10069000494941007F09090901003E414151730068
:1006A0007F0808087F0000417F4100002040413F53
:1006B00001007F08142241007F40404040007F023B
:1006C0001C027F007F0408107F003E4141413E0034
:1006D0007F09090906003E4151215E007F09192961
:1006E000460026494949320003017F0103003F408B
:1006F00040403F001F2040201F003F4038403F0047
:100700006314081463000304780403006159494D1D
:100710004300007F414141000204081020000041D5
:1007200041417F000402010204004040404040007B
:100730000003070800002054547840007F284444F8
:100740003800384444442800384444287F00385452
:100750005454180000087E09020018A4A49C7800D4
:100760007F080404780000447D4000002040403DA4
:1007700000007F102844000000417F4000007C04FE
:10078000780478007C080404780038444444380035
:10079000FC182424180018242418FC007C080404E5
:1007A000080048545454240004043F4424003C40AE
:1007B00040207C001C2040201C003C4030403C007D
:1007C0004428102844004C9090907C004464544C81
:1007D000440000083641000000007700000000419E
:1007E000360800000201020402003C2623263C00D9
:1007F00003071F7FFFFFFEF8F0C020F8FEFFFE7921
:10080000271F7FFFFFFEF8F0C020F8FEFFFF7F3FAD
:100810003F7FFFFEF8F0C000000000FFFFFFFFFF7A
:10082000FF00000000000000FF7F7F7FBFBFC0C04F
:10083000C0E0E0E0E0F0F0F0F878787C3C3CFEFED0
:10084000FEFFFFFF000000000000000000008080AD
:10085000BFBFDFDFEFEF0003071F7FFFFFFFFEF8E3
:10086000E0C0E0F8FEFFFFFF7F1F07030000E0F09D
:10087000F0F0E0ECEEF7F37020007C7C7C7E007EF4
:100880007E7E7F7F7F000080C0E07E5B4F5BFEC08E
:100890000000C000DCD7DEDEDED7DC00C0000000D8
:1008A0000000000000000000000000000000000048
:1008B00000000000C1F3CFBF7FFFFFFCFBE781001A
:1008C00000000080E3CF3FFFFFFFFCFBE78100005B
:1008D000000081E7FFFFFFFF3C0000FFFFFFFFFF7D
:1008E000FFF8F8FC7C7E7E3EFEFFFFFFFFFFF7F780
:1008F000F7FBFB7D7D7DBEBEBEDFDFE0E000FFFFDE
:10090000FFFFFFFF00FCFC7C7E7E3E3E1F1F1F0F93
:10091000FFFFFFFFFFFF000000000081E7FFFFFF78
:10092000FFFFFFFFFFFFE7810000000000000F1F37
:100930003F7F7F7F7F7F3F1E0C001F1F1F3F003FB9
:100940003F3F7F7F7F00307B7F7830202030787F73
:100950003B0003000F7F0F0F0F7F0F00030000000D
:100960000000000000000000000000000000000087
:1009700060707C7F7F7F7F1F0601030F3F7F7F7E3C
:100980007C7C7E7F7F7F1F0601070F3F7F7F7E7C01
:100990007C7E7F7F3F0F03000000007F7F7F7F7F93
:1009A0007F000000000000007F7F7F7F7F7F7D7DD4
:1009B0003D3E1E1F1F1F0F0F0707070303007F7F0A
:1009C0007F7F7F7F7C7C7C7C7C7C7C7C7C7C7C00D7
:1009D0007F7F7F7F7F7F004070787E7F7F7F3F0FAC
:1009E0000301030F3F7F7F7F7E787040000000008F
:1009F00000000000000000000000000000000000F7
:100A000000000000000000000000000000000000E6
:100A100000000000000000000000000000000000D6
:100A200000000000000000000000000000000000C6
:100A300011241FBECFEFDAE0DEBFCDBF11E0A0E092
:100A4000B1E0E6E8F6E502C005900D92AA3DB107D7
:100A5000D9F725E0AAEDB1E001C01D92AD3BB20788
:100A6000E1F70E9470230C94ED2A0C940000482FAB
:100A70002091AE039091750357E0291302C080E0E6
:100A8000089530E0529FF001539FF00D1124EA5871
:100A9000FC4F8181681306C08081481303C08581A3
:100AA0008111EECF2F5F3F4F2770E7CFE8EDF0E0E9
:100AB00080818E7F80831092E2001092DA00109283
:100AC000E100A0EEB0E08C9181608C9380818F7703
:100AD000808319BCA7EDB0E08C918E7F8C938081D0
:100AE0008F7E808310925E0308952091E400309100
:100AF000E50095E6A9012091EC00822F817020FF8E
:100B000006C08091E80080FF06C080E00895209133
:100B1000E80022FD1AC080916B03882389F085309C
:100B200089F08091EB0085FD0FC02091E4003091A9
:100B3000E50042175307F9F29150E1F684E0089579
:100B400082E0089583E0089581E0089580916D0327
:100B500087FF13C08091E80082FF06C08091E80003
:100B60008B778093E80004C080916B038111F2CFF2
:100B7000089580916B038823D9F38091E80080FF6A
:100B8000F8CF8091E8008E77ECCF982F9093E90012
:100B9000242F762F50E0891731F07091EC002091CE
:100BA000ED005091F00021FD07C09F5F973071F775
:100BB0008093E90081E008953091EB003E7F30930F
:100BC000EB003091ED003D7F3093ED003091EB0074
:100BD00031603093EB007093EC002093ED00509364
:100BE000F0002091EE0027FDE0CF80E00895B0E016
:100BF000A0E0EDEFF5E00C94E029C8EDD0E08881AD
:100C00008F7E8883E7EDF0E080818160808384E0DF
:100C100082BF81E080935E0388818E7F888302EEAD
:100C200010E0F80110821092DA0081EEC82ED12C6B
:100C3000F601108288818F77888388818068888315
:100C400088818F7D888319BC10926B0310926C038E
:100C500010926A031092690390EEE92EF12CF701CD
:100C600080818B7F808388818160888342E060E01F
:100C700080E00E94C505F60180818E7F8083F801A7
:100C8000808181608083808188608083F70180819A
:100C90008E7F8083888180618883CDB7DEB7E8E06E
:100CA0000C94FC29FC0180917303909174038617C6
:100CB0009707A0F06115710529F49091E8009E77DF
:100CC0009093E80090E06115710551F4911108C00E
:100CD0008091E80082FF34C080E00895BC01F2CF2B
:100CE00080916B038823C1F18530C1F18091E800C8
:100CF00083FD30C08091E80082FDEACF8091E8005A
:100D000080FFE1CF8091F3002091F200382F611530
:100D1000710519F02830310558F091E0283031057F
:100D200009F090E02091E8002E772093E800CBCFE7
:100D300081918093F100615071092F5F3F4FE7CFA0
:100D400080916B03882341F0853041F08091E80069
:100D500083FFBECF81E0089582E0089583E0089587
:100D6000089508958091600308952FB7F8946091D5
:100D70005A0370915B0380915C0390915D032FBFD8
:100D80000895A3E0B0E0E7ECF6E00C94E6292091AA
:100D900057033091580328173907A1F0909358034F
:100DA00080935703E0915503F0915603309751F02B
:100DB00024E029839B838A830680F781E02DCE017E
:100DC000019609952396E2E00C94022AA3E0B0E094
:100DD000ECEEF6E00C94E629209153033091540395
:100DE00028173907A1F09093540380935303E0919F
:100DF0005503F0915603309751F023E029839B83EC
:100E00008A830680F781E02DCE010196099523960D
:100E1000E2E00C94022AFC01680F791F8FEF91E346
:100E20002191822728E030E087FF09C0880F8927B9
:100E300021503109C9F7E617F70791F70895880F90
:100E4000F7CFFA01811101C0FB0109950895E3E88C
:100E5000F2E01182828184608283089580911D0373
:100E6000982F9E7F61F48170826080931D03809132
:100E70002003893718F088E78093200308958C3287
:100E8000B0F381708A62F1CFAF92BF92DF92EF929E
:100E9000FF920F931F93CF93DF93082F162FE90133
:100EA000E42FF0E0EA56FD4F611110C0E4915E2F8F
:100EB0004E2F4983E8835A83DF91CF911F910F9181
:100EC000FF90EF90DF90BF90AF900895E62EF12C49
:100ED0004491D42EE42FF0E026E0829FC00111243B
:100EE0002FEF30E0B9010E94C229802F90E0880FD7
:100EF000991F55E5569FD001579FB00D11248A1BAD
:100F00009B0B982F990F890F5901AE18BF08AE9E01
:100F1000D001AF9EB00DBE9EB00D11245B2F189F67
:100F200080011124012F11275901A01AB10AAE9E88
:100F30008001AF9E100DBE9E100D11245901A81AFC
:100F4000B108AE9CC001AF9C900DBE9C900D1124C9
:100F5000892F9927281B390B2E9FC0012F9F900D99
:100F60003E9F900D1124E92F62307105A1F050F4DD
:100F70006115710509F49DCF6130710581F0EB2F8A
:100F8000512F97CF6430710569F080F0663071059C
:100F900009F48FCFF4CFE42F4B2F592F8ACFE42FB2
:100FA000412F87CFEB2F542F492F83CF4B2F5D2D10
:100FB000E12F7FCF80E00895F894E82FE295EF705D
:100FC000F0E031A1282F2F7081E090E001C0880F60
:100FD0002A95EAF7982F9095932391A392A1892BB4
:100FE00082A3789408959091250392FF10C041E068
:100FF000282F2471243009F040E031E0282F287197
:10100000283009F030E0431711F02CE0822793FFDD
:1010100010C041E0282F2471243109F040E031E074
:10102000282F2871283109F030E0431711F02CE007
:1010300082273091260330FF10C051E0282F217104
:10104000213009F050E041E0282F2871283009F0C4
:1010500040E0541711F029E0822731FF10C041E031
:10106000282F2171213109F040E031E0282F28712B
:10107000283109F030E0431711F029E0822794FD70
:10108000877E089582389105B9F1B0F481339105D6
:1010900009F47DC048F48932910509F46DC08A32A3
:1010A000910509F47BC008958533910509F45FC06B
:1010B0008933910509F10895833E9105D9F138F4FA
:1010C000803E910529F1823E910579F10895863E91
:1010D0009105D9F1873E910509F43EC0843E910502
:1010E00041F52091260321FF24C08091250384FD32
:1010F00019C087EE90E0089520912503237009F030
:101100005AC02091260323FF14C089E290E008957D
:101110002091250320FD38C03091260330FF09C0FF
:1011200024FF43C090E080E008952091250322FD34
:10113000F7CF08952091250322FD3AC03091260370
:1011400030FD39C024FFF5CFEDCF2091250323FFDB
:10115000F0CF24FDE7CFCDCF2091250323FD2EC076
:101160003091260331FFEECF84EE90E00895209178
:10117000250325FFDECFC9CF2091250325FD21C002
:101180002091260323FFD5CF89E390E0D2CF209191
:10119000250326FFCECF8AE290E008952091250313
:1011A00026FFC7CF81E390E0089583EE90E0089595
:1011B00082EE90E0089580EE90E0089586EE90E053
:1011C000089585E390E00895972F7830B8F467305C
:1011D000A8F48430B0F470E027E0929F600D711D98
:1011E0001124FB0198E3899FE00DF11D1124EE0FFE
:1011F000FF1FE455FF4F85919491089580E090E0A2
:10120000089581E0FCCF1F93CF93DF930E944208A3
:10121000EC01C11580E5D807F0F5C11580E4D807C9
:1012200008F09CC0C03ED10520F5CD3CD10508F0AA
:1012300082C0C83AD10578F4C53AD10508F073C028
:10124000C130D10519F1209709F1C430D105F0F46E
:10125000D0E0C0E01BC0C33CD105D0F7C85AD0E0F5
:10126000CC0FDD1FC859DE4F0990D881C02DD46442
:101270000DC0C11580E2D80708F0D1C0C11581E0CA
:10128000D80708F05AC0C83ED10510F7CE01DF914B
:10129000CF911F910895C03682E5D80718F5C03464
:1012A00082E5D80708F06BC0C03282E5D80708F0A5
:1012B0005FC0C11582E5D80708F497C02C2F26958A
:1012C000269580E2289F900111248C2F8370C1E025
:1012D000D0E002C0CC0FDD1F8A95E2F7C22BD32BE2
:1012E000DD68D4CFC03A82E5D80760F4C03882E523
:1012F000D80708F459C0CF71D0E0DC2FCC27C46FD9
:10130000D06AC4CFC03C82E5D80708F462C0C03EB2
:1013100082E5D80708F09CCFDC2FCC27CC27DF71E3
:10132000C06FD06AB3CFC55AD0E0CB59DE4FC88169
:10133000D0E0D064ABCFD065A9CF8D2F0E94F3074A
:10134000182FCE0199270E944208C12FD0E0DC2F30
:10135000CC27CC27DF71C82BD92B98CFCE0199276A
:101360000E944208CC27DF70C82BD92BD06A8ECFC1
:10137000CF71D0E0DC2FCC27C16FD06A87CF2C2F64
:1013800026952695277080E2289F900111248C2FA6
:101390008370C1E0D0E002C0CC0FDD1F8A95E2F778
:1013A000C22BD32BDC6872CF2C2F26952695277065
:1013B00080E2289F900111248C2F8370C1E0D0E03F
:1013C00002C0CC0FDD1F8A95E2F7C22BD32BDA685F
:1013D0005DCF8C2F8F710E94F307C82FD0E0DC2FD8
:1013E000CC27CC27DF71D06251CF8C2F8F710E9418
:1013F000F30755E0D695C7955A95E1F7CF70D0E041
:10140000DC2FCC27282F30E084FF05C044E0220FDA
:10141000331F4A95E1F7C22BD32BD06937CF8D2FDD
:101420008F710E94F307182FCE0199270E9442085E
:10143000C12FD0E0DC2FCC27CC27DF71C82BD92BD4
:10144000D2CF80959091140298239093140208951E
:10145000EEEDF1E09191891303C0DF0111971C9229
:1014600091E0E43EF907B1F70895AEEDB1E0EFEF9A
:1014700090E02D91821751F0EF3F19F4211101C036
:10148000E92F9F5F9630A9F7EF3F09F408950E2EDC
:10149000000CFF0BE452FE4F828308958091AE034F
:1014A00090917503981301C008958F5F8770FACFEC
:1014B000B0E0A0E0EEE5FAE00C94DF297C010091B9
:1014C0002703109128038091150290911602082B92
:1014D000192BCFE0D0E0CC24C394D12CBC2EC60174
:1014E0000C2E02C0880F991F0A94E2F780239123E3
:1014F000892B49F4219790F7B12C8B2DCDB7DEB70E
:10150000E9E00C94FB29B7018C2F0E94E4080E94AB
:101510000309019779F3F1CFCF93DF93EC010E9498
:10152000580ABE010E94E4080E940309DF91CF918E
:101530000895983078F5873068F5E82FF0E087E077
:10154000989FE00DF11D11249E2F977083E0F69572
:10155000E7958A95E1F7EE0FFF1FEE0FFF1FEA51A7
:10156000FE4F50E040E080E0219130E0092E02C0C3
:10157000369527950A94E2F721703327042E01C08F
:10158000220F0A94EAF7822B4F5F5F4F44305105D8
:1015900059F7089580E00895983098F5873088F5D8
:1015A000E82FF0E087E0989FE00DF11D11248E2FC9
:1015B000877041E001C0440F8A95EAF783E0F69511
:1015C000E7958A95E1F7EE0FFF1FEE0FFF1FEA5137
:1015D000FE4F30E020E070E05191DF011197CB0128
:1015E000022E02C0969587950A94E2F78170819544
:1015F0008527842385278C932F5F3F4F2430310527
:1016000059F708959093280380932703089521E0C4
:1016100030E002C0220F331F8A95E2F72095309503
:101620008091270390912803822393230E94020B29
:101630000895909109028095892380930902282FAB
:10164000277069F4891759F09091260392FF07C01B
:101650008695869586950E94070B1092090208953B
:1016600021E030E002C0220F331F8A95E2F780911B
:10167000270390912803822B932B0E94020B08953D
:1016800090931602809315020895FC012481222371
:10169000C1F0808191810E948C0A92959F70963052
:1016A00091F058F4925F9F70923058F4803F19F097
:1016B00030F4883E30F481E008959A5FF4CF843F9F
:1016C000D1F380E00895883EB0F3813FD1F7F3CFA6
:1016D000A6E0B0E0EEE6FBE00C94E52949835A83EE
:1016E00049815A819923A1F0222391F0CA010E94D5
:1016F000580A182F682F89819A810E94CC0A698123
:101700007A81812F0E94E4082696E3E00C94012A56
:10171000CA010E94990A182FF2CFCF93DF93FC01E0
:10172000EB016A3071054CF0CB016AE070E00E9479
:10173000192ACF010E948D0BFC01CE016AE070E0F6
:101740000E94192ADC01AF5ABE4F8C91808311820E
:10175000CF010196DF91CF910895CF93DF93C09190
:10176000BB05D091BC058A30C1F42091B203CE01F3
:10177000855B9340622F70E00E94C229281B822F54
:1017800066E00E940D2AC82FC15018F4DF91CF9156
:10179000089580E20E94AD0BF7CF8D30E9F4C55B70
:1017A000D3402091B203622F70E0CE010E94C22983
:1017B000281B822F9E01280F311D2115324018F061
:1017C00080E0D0E0C0E0C80FD11DCB54DC4FD093F7
:1017D000BC05C093BB05DACF96E0FE01A5EBB5E0F2
:1017E00001900D929A95E1F7803E08F458C086E08A
:1017F000FE0111928A95E9F7C091BB05D091BC0515
:1018000046E050E0BE0185EB95E00E947F2A9E01F4
:10181000255B3340892B41F1C90145E096958795B9
:101820004A95E1F741E050E0BA0102C0660F771F28
:101830008A95E2F7CB016091B3037091B403862BD4
:10184000972BB9016B5F7F4FE5E076956795EA9539
:10185000E1F702C0440F551F6A95E2F7842B952BE0
:101860009093B4038093B3032A5F3F4F4091B20338
:10187000642F70E0C9010E94C229481B463010F451
:10188000240F311D211572E0370710F030E020E001
:101890002B543C4F3093BC052093BB0577CFF6E02B
:1018A0008F9FB001112460517B4F46E050E0CE0184
:1018B0000E94692AA1CFCF93DF93EC01FE018491AE
:1018C000811103C0DF91CF9108950E94AD0B219645
:1018D000F5CF8091140290911302892B8093DC0143
:1018E00090911202992391F0892B8093DC0120E0E2
:1018F0008EED91E0FC013191CF0131112F5FF1E0CC
:10190000843E9F07B9F721111092120248E050E07F
:101910006AE072E08CED91E00E947F2A892BA9F0A9
:1019200088E0ECEDF1E0AAE0B2E001900D928A953A
:10193000E1F7E0915503F0915603309731F00280C2
:10194000F381E02D8CED91E0099508951092140239
:10195000EEEDF1E086E0DF011D928A95E9F790E077
:1019600080E00E94E60690E080E00E94C1061092AE
:1019700013020E94690C0895AAE2B0E0E2ECFCE0D8
:101980000C94E5298DE693E02091F100FC01219370
:10199000CF01F3E085379F07B9F780916E0383305D
:1019A00009F470C0B8F4813009F447C0823009F4FA
:1019B000B1C08091E80083FF7EC280916D03909159
:1019C0006E039A3008F077C2E92FF0E0E151F54D4F
:1019D0000C942D2A8A3009F48CC08B3009F46FC026
:1019E000893039F780916D03813219F78091710345
:1019F000909172030297E8F68091E800877F8093C8
:101A0000E8008091E80082FF38C09091F300809157
:101A1000F200029731F48091F100813011F08630AC
:101A200021F48091F100809360038091E8008B772E
:101A30008093E8000E94A605BCCF80916D03813A97
:101A400009F0B7CF8091E800877F8093E80080910C
:101A5000710390917203892B61F468E081E693E051
:101A600070E00E9452068091E8008B778093E80036
:101A7000A0CF60E090E080E0F3CF80916B03811114
:101A8000C0CF97CF80916D03813A09F092CF8091BA
:101A9000710390917203892B09F08BCF8091E8003C
:101AA000877F8093E8008091E80080FFFCCF8091E1
:101AB00050018093F1008091E8008E77B9CF80913A
:101AC0006D03813209F075CF80917103909172039B
:101AD000892B09F06ECF8091E800877F8093E80022
:101AE0000E94A60580916F03809350010E94A60C6E
:101AF00060CF80916D03813209F05BCF8091E80067
:101B0000877F8093E8000E94A605809170038093F0
:101B10005F034FCF80916D03813A09F04ACF8091E6
:101B2000E800877F8093E8008091E80080FFFCCF89
:101B300080915F03BECF803899F0823809F0BBC135
:101B4000809171038F70873008F0B5C18093E900F0
:101B50008091EB0085FB882780F91092E90006C090
:101B60008091690390916A03911182609091E800DD
:101B7000977F9093E8008093F1001092F10080919C
:101B8000E8008E7794C1882309F482C1823009F07D
:101B900092C180916F03811185C1809171038F7013
:101BA0002FEF280F263008F086C18093E90020919E
:101BB000EB0020FF77C1933031F48091EB0080621D
:101BC0008093EB006FC19091EB0090619093EB00DC
:101BD00021E030E001C0220F8A95EAF72093EA0065
:101BE0001092EA008091EB008860EACF811163C116
:101BF00010916F031F778091E3008078812B809391
:101C0000E3008091E800877F8093E8000E94A605AA
:101C10008091E80080FFFCCF8091E3008068809392
:101C2000E30082E0111183E080936B0344C180588C
:101C3000823008F040C180916F03909170038C3D19
:101C400023E09207A1F583E08A838AE289834FB774
:101C5000F894DE01139620E03EE051E2E32FF0E03D
:101C600050935700E49120FF03C0E295EF703F5F6F
:101C7000EF708E2F90E0EA30C0F0C7968D939D9361
:101C80002F5F243159F74FBF8091E800877F809301
:101C9000E8006AE270E0CE0101960E94520680914F
:101CA000E8008B778093E80006C1C096E7CF4091AB
:101CB000710350917203292F33272330310509F422
:101CC00044C078F52130310509F46FC08BE390E012
:101CD000E5E6F4E02230310509F0EDC02091E8009E
:101CE000277F2093E80020917303309174038217BB
:101CF000930708F49C0140E02115310509F064C008
:101D0000411162C08091E80082FDC9CF80916B03D0
:101D1000882329F2853019F28091E80083FFF2CF01
:101D2000BECF21323105A9F12232310509F0C3C0FD
:101D30004115510509F443C04130510509F0BBC0BC
:101D400082E390E0EFEEF3E0C9CF9927813091056F
:101D5000C1F0009759F0029709F0ADC0E2EBF4E052
:101D6000E4918E2F90E0E2EBF4E007C0ECEEF4E0BB
:101D7000E4918E2F90E0ECEEF4E0009709F49BC024
:101D8000ADCFE6EDF4E0E4918E2F90E0E6EDF4E0E7
:101D9000F4CF4115510571F04130510509F08BC068
:101DA00089E090E0E0E9F4E099CF82E190E0E0EAB8
:101DB000F4E094CF89E090E0E7E7F4E08FCF84E4AB
:101DC00090E0E1E2F4E08ACF80916B03882309F48C
:101DD00066CF853009F463CF8091E80083FD5FCF43
:101DE0008091E80082FD8ECF8091E80080FF84CF53
:101DF0009091F3008091F2002115310519F088309F
:101E0000910550F041E0089709F040E08091E8002A
:101E10008E778093E80070CF44914093F100319623
:101E2000215031090196E8CF803809F044C08091F3
:101E3000E800877F8093E80080916C038093F10035
:101E40009ECE811138C010916F031230A0F58091A1
:101E5000E800877F8093E80010936C030E94A6053A
:101E6000112311F084E005C08091E30087FDFACFD3
:101E700081E080936B0342E061EC81E00E94C50544
:101E800042E261EC82E00E94C50580916B0313C0C1
:101E900080916F03813079F481E0933009F080E024
:101EA00080936A031092E9008091E800877F809315
:101EB000E8000E94A6058091E80083FF0AC0809197
:101EC000E800877F8093E8008091EB008062809338
:101ED000EB00AA96E3E00C94012A882321F00E94EB
:101EE000210A0E94690C0895882339F09091140208
:101EF000982B909314020E94690C08950F931F93DE
:101F0000CF93DF938B01EA0190916B03943061F5DD
:101F10008093E9008FEF9091E800815095FD06C015
:101F200095ED9A95F1F700008111F5CF8091E800C9
:101F300085FF1AC00E947505811111C08091E800CB
:101F400085FD06C08091E8008E778093E800F2CF8F
:101F5000F80181918F018093F100219779F78091A9
:101F6000E8008E778093E800DF91CF911F910F9169
:101F7000089543E050E0BC0182E00E947E0F089586
:101F8000CF93DF93EC0148E050E0BC0181E00E9478
:101F90007E0F88E0FE01A1E6B3E001900D928A95E4
:101FA000E1F7DF91CF9108956091450180911D0384
:101FB00080FF20C08091440143E0849FC001112430
:101FC0008A579D4F539A2BB1277F3BB138605FB73B
:101FD000F894FC01649FE00DF11D1124BF01681706
:101FE0007907D1F45FBF8FE594E00197F1F700C066
:101FF00000000895809146019091470123E0829F5F
:10200000F0011124EA57FD4F8917A0F611821082C2
:1020100012828F5F3396F8CFFC014191CF01E8E047
:102020003BB9000000C047FF2BB9440F000000C0BF
:1020300000C000C02BB900C0EA9591F7D0CFEF9255
:10204000FF921F93CF93DF93EC0110E0EE24EA940C
:10205000F12C60914801161770F00E94D40F9A81FC
:102060008C8190FF2AC08F5F8C83DF91CF911F916D
:10207000FF90EF90089520914601422F410F552780
:10208000551FCA019A01220F331F280F391F2A57E3
:102090003D4F40912003493708F048E770E0C70101
:1020A0000E94192A962F8C8160911F03199F800D21
:1020B00011240E9444071F5FCCCF8150D5CF90914F
:1020C0001D0390FF0EC0909146012091470133E01F
:1020D000939FF0011124EA57FD4F921718F00E94C8
:1020E000D40F08958183608342839F5F3396F5CF39
:1020F000A3E0B0E0EEE7F0E10C94E4298C018091DC
:102100001C0381110AC09E012F5F3F4F48E76FEF0C
:102110000E9444078A8180931C03F8016481613026
:1021200069F080911C0340E0662361F040E062307A
:1021300011F440911C0380E060E004C060911C0336
:1021400040E080E00E945F10F801848190E00196F9
:1021500063E070E00E94192A84832396E4E00C94E3
:10216000002AA3E0B0E0E7EBF0E10C94E4298C0155
:1021700080911D0380FF13C040912003493708F070
:1021800048E79E012F5F3F4F60911F03F801848154
:102190000E9444074B8169818A810E945F10F80187
:1021A00084818F5F84832396E4E00C94002AB0E05E
:1021B000A0E0EDEDF0E10C94DE297C015B016A0109
:1021C00080914E0201E010E08A3010F40AE010E045
:1021D000C1E0D0E0B501C701F6010995811104C045
:1021E00021960C171D072CF4CDB7DEB7EAE00C944E
:1021F000FA29CC9F9001CD9F300D300D112490E035
:1022000080E045E34A95F1F70000019682179307B5
:10221000C1F7E0CF80912302811110C08091D800D6
:1022200080618093D8008AE18A95F1F700C080919F
:10223000D90080FF0AC081E08093230281E0909161
:102240002302913009F080E0089582E08093230218
:102250000E94560510926B03F1CF0E940A11882349
:1022600059F0E0915503F0915603309729F0019011
:10227000F081E02D0995089580E00895882309F400
:102280004DC0823879F40E942D1181FF47C089E347
:102290000E94350A0E94690C89E30E94280A0E9464
:1022A000690C0895833859F40E942D1180FF36C0BF
:1022B00083E50E94350A0E94690C83E5EECF8438DD
:1022C00059F40E942D1182FF29C087E40E94350A2B
:1022D0000E94690C87E4E1CF9CEF980F913AE8F2F5
:1022E00090E2980F983050F4877091E001C0990FF8
:1022F0008A95EAF7892F0E94210AD1CF9BE5980F92
:10230000933028F490E080E00E94E6060895885A11
:102310008B3120F490E080E00E94C10608950F9375
:102320001F930E940A11882329F00E94B5061F916D
:102330000F9108950E94B50600914F02109150022E
:102340002091510230915202600F711F821F931F22
:10235000EECF0E948F110895CF93C82F8823C9F024
:102360008238C9F40E942D1181FD13C089E30E94B7
:10237000350A0E94690C2FEF87EE93E021508040D0
:102380009040E1F700C0000089E30E94280A0E9403
:10239000690CCF9108958338A1F40E942D1180FD1E
:1023A000F8CF83E50E94350A0E94690C2FEF81EE79
:1023B00094E0215080409040E1F700C0000083E5A8
:1023C000E4CF8438A1F40E942D1182FDE2CF87E48E
:1023D0000E94350A0E94690C2FEF81EE94E0215093
:1023E00080409040E1F700C0000087E4CECF8CEF42
:1023F0008C0F813A70F4EEEDF1E084EE91E02191E2
:10240000C21799F18E179F07D1F78C2F0E94350ABA
:10241000BECF80E28C0F883068F4C77021E030E0D6
:1024200001C0220FCA95EAF780911402822B809393
:102430001402ADCFEBE5EC0FE33040F4F0E0EB59E4
:10244000FE4F808190E00E94E606A3CFC85ACB31B0
:1024500008F09FCFEC2FF0E0EE0FFF1FE859FE4F82
:10246000808191810E94C10694CF8C2F0E94280AFE
:102470000E94690CCACF1F93CF93DF93182FEB01F3
:102480000E94AC11209739F4812F0E943E11DF91F8
:10249000CF911F9108958FE99FE00197F1F700C058
:1024A00000002197EFCF0E94A60C2FEF84E39CE061
:1024B000215080409040E1F700C0000088E19AE0A0
:1024C0000FB6F894A895809360000FBE90936000BB
:1024D000FFCFB0E0A0E0EFE6F2E10C94E0296C0160
:1024E0007B0164E670E088E70E9420278C01E6010A
:1024F000EC0CFD1C17FD0BC0FE01849164E670E03E
:102500000E948C278C012196CE15DF0599F70E9439
:10251000022881E00115110509F080E0CDB7DEB792
:10252000E8E00C94FC2980914F03909152039111A3
:1025300003C091E089270895882369F062E070E084
:102540008DE993E00E946912811103C080914F03CD
:10255000089510924F0380914F03EBCFCF93C0911A
:102560004F03809152038823D1F00E94B506605A30
:1025700075418F4F9F4F60934B0370934C03809333
:102580004D0390934E03C11108C062E070E08BE9E7
:1025900093E00E946912811105C0C0914F038C2FF6
:1025A000CF91089581E080934F03F7CFB0E0A0E092
:1025B000ECEDF2E10C94DC2949015A016B017C013C
:1025C0000E942E078401A4016A2D7B2D88E090E0F3
:1025D0000E94CB2A94014A2D5B2DB601C70100E26F
:1025E0000E944E2A622F84E290E00E94B92ACDB761
:1025F000DEB7ECE00C94F829A3E0B0E0E2E0F3E110
:102600000C94DF29082FE62EF42EC22E80911D0394
:1026100080FF44C020911E03201308C090911F0327
:10262000961304C090912003941729F0909185028D
:10263000926090938502E82FE695AE2FB0E0A55406
:10264000BE4F9C91909383028E7F823059F54F2D1F
:1026500068E76F1508F448E79E012F5F3F4F6E2D26
:10266000802F0E9444074B8169818A810E945F10FC
:1026700000931E03E0921F03F0922003CC2071F020
:1026800020911D036091210370912203302FA70137
:1026900080912303909124030E94D6122396E9E0AF
:1026A0000C94FB299230C1F19530B1F19B3001F7C8
:1026B000EB507E2F7170B72EE695F0E0EA56FC4F96
:1026C0001491D12C60914801D61618F00E94D40FB5
:1026D000CFCFD19EC001112470E00E94C229802F6B
:1026E000B11018C0860F20914601622F6D0D77271B
:1026F000771F9B01220F331F260F371F2A573D4F8D
:102700004F2D78E77F1508F448E76E2D0E944407A7
:10271000D394D8CF861BE7CF022FAACFEDE1F3E009
:10272000438121E1421B08F440E021E06281818184
:102730000E94FC120895EDE1F3E0438121E1420F94
:1027400008F44FEF21E0628181810E94FC1208951C
:10275000EDE1F3E0628121E1621B08F460E021E039
:10276000438181810E94FC120895EDE1F3E06281D2
:1027700021E1620F08F46FEF21E0438181810E9423
:10278000FC120895EDE1F3E0818121E04381628153
:1027900088500E94FC120895EDE1F3E0818121E070
:1027A00043816281885F0E94FC1208958091210319
:1027B000882319F081508093210320911D033091CB
:1027C0001E0340911F0350912003609121037091DB
:1027D000220380912303909124030E94D61208952E
:1027E00080912103833018F48F5F8093210320911F
:1027F0001D0330911E0340911F03509120036091EF
:1028000021037091220380912303909124030E945D
:10281000D6120895EDE1F3E083E0808311828FEF1B
:10282000828388E783831482A3E8B2E012968C91B6
:102830001297836012968C93758123E030E04FEFFE
:1028400058E760E0868197810E94D6120895ABE038
:10285000B0E0EDE2F4E10C94E62988E0EDE1F3E08C
:10286000DE01119601900D928A95E1F78091830225
:1028700090918402A091850289879A87AB872B85E6
:1028800040914A0250914B0260914C0270914D026E
:102890003FB7F89480915A0390915B03A0915C0339
:1028A000B0915D033FBF841B950BA60BB70B84361D
:1028B0009105A105B10510F4222319F18091290198
:1028C00090912A018C5C9D4F4091280150E04C3042
:1028D000510510F04BE050E0BE016F5F7F4F0E944A
:1028E0008C2A85E090E00E944C29882369F00E94A0
:1028F000B50660934A0270934B0280934C0290930A
:102900004D021092850281E02B96E2E00C94022A9F
:10291000A4E0B0E0EEE8F4E10C94E5294091300247
:102920005091310260913202709133022FB7F894C6
:1029300080915A0390915B03A0915C03B0915D0379
:102940002FBF841B950BA60BB70B11E084369105A6
:10295000A105B10570F10E948F116E5F7F4F8F4FFF
:102960009F4F69837A838B839C838091210190910F
:1029700022018C5C9D4F4091200150E04530510573
:1029800010F044E050E0BE016F5F7F4F0E948C2A40
:1029900084E090E00E944C29182F882351F00E9477
:1029A000B5066093300270933102809332029093A7
:1029B0003302812F2496E3E00C94012A4F925F9218
:1029C0007F928F929F92AF92BF92CF92DF92EF92BF
:1029D000FF920F931F93CF93DF930F92CDB7DEB784
:1029E000C62E4A015901482E880F5508C2010E947F
:1029F0004C29782E882309F480C0C20133E0880F67
:102A0000991F3A95E1F7FC01E050FF4F438150E0F8
:102A10004115510511F041E050E080509F4FFC01FD
:102A2000648175816C5C7D4FCE0101960E948C2A79
:102A3000F40140815181628173812FB7F8948091B4
:102A40005A0390915B03A0915C03B0915D032FBF8B
:102A5000841B950BA60BB70B84369105A105B10518
:102A600040F4B701C8010E940B079981891709F446
:102A700044C00C2C000CDD08C6010E944C29782EA5
:102A8000811113C0712C872D0F90DF91CF911F9171
:102A90000F91FF90EF90DF90CF90BF90AF909F90FD
:102AA0008F907F905F904F900895C60123E0880F2C
:102AB000991F2A95E1F7FC01E050FF4F438150E058
:102AC000E416F50608F4A70180509F4FFC016481CD
:102AD00075816C5C7D4FC5010E948C2AB701C801CD
:102AE0000E940B0799818913CDCF0E94B506F4018E
:102AF0006083718382839383C6CFA701B801C50128
:102B00000E948C2AC0CFA1E0B0E0E9E8F5E10C9486
:102B1000E029EE24E394F12C0AE312E09E012F5FFA
:102B20003F4F4CE252E063E082E00E94DE14D82E78
:102B3000882321F1E12C80E01AC0009154020E0D8F
:102B400010E00C581D4FE1E0F0E0EC0FFD1FEE0D22
:102B5000F11DF080F8019081F91ACF2C1C149CF023
:102B60009F2DF7FC90E0F91AF11019C0E3949091B1
:102B70005302E91610F381110E94A9118D2D21969F
:102B8000E8E00C94FC29CA94F80180818F5F80836F
:102B90006AE070E08AEA0E943B128D2DDFCFF39449
:102BA000F8018081815080836AE070E089EA0E94A8
:102BB0003B128D2DD9CFA4E0B0E0E1EEF5E10C940D
:102BC000E0296B0184E0E82EF12C05E312E09E0180
:102BD0002F5F3F4F48E252E061E080E00E94DE1448
:102BE000882361F049815A816B817C814093240262
:102BF000509325026093260270932702409124028D
:102C0000509125026091260270912702F6014083BF
:102C10005183628373832496E8E00C94FC29A8E036
:102C2000B0E0E5E1F6E10C94E62966EE7EEF90E097
:102C300080E00E94D72A60E082E090E00E94B92AFA
:102C400060E083E090E00E94B92A10921602109290
:102C5000150260E074E184E090E00E94D72A60E011
:102C600086E090E00E94B92A6FEF87E090E00E9432
:102C7000B92A40E050E0BA0188E090E00E94CB2AF7
:102C800060E084E290E00E94B92A60E087E190E091
:102C90000E94B92A60E08CE090E00E94B92A60E0CE
:102CA0008DE090E00E94B92A19821A821B821C8250
:102CB0001D821E821F82188648E050E068E170E0A5
:102CC000CE0101960E94A92A40E050E0BA0180E2BC
:102CD00090E00E94CB2A40E050E0BA018FE090E003
:102CE0000E94CB2A40E050E0BA0183E190E00E94CC
:102CF000CB2A2896E2E00C94022A9091260392FBBC
:102D0000222720F9281779F080FB92F99093260367
:102D1000609125037091260384E090E00E94D72AF9
:102D200082E00E94190B08951F920F920FB60F9226
:102D300011242F933F934F935F936F937F938F93C0
:102D40009F93AF93BF93CF93DF93EF93FF93D09174
:102D5000E900DF708091EC00C82FC17080FDC0E8F1
:102D60001092E9008091F000877F8093F0007894C2
:102D70000E94BC0C1092E9008091F0008860809362
:102D8000F000CD2BCF70C093E900FF91EF91DF9160
:102D9000CF91BF91AF919F918F917F916F915F91F3
:102DA0004F913F912F910F900FBE0F901F9018954C
:102DB0001F920F920FB60F9211242F933F934F93B0
:102DC0005F936F937F938F939F93AF93BF93EF9393
:102DD000FF938091E10082FF09C08091E20082FFB1
:102DE00005C08091E1008B7F8093E1008091DA0043
:102DF00080FF24C08091D80080FF20C08091DA003D
:102E00008E7F8093DA008091D90080FF9DC080E1A1
:102E100089BD82E189BD09B400FEFDCF81E08093C8
:102E20006B0380915E03811109C00E9456050E94C8
:102E3000F7058091E20084608093E2008091E100D8
:102E400080FF17C08091E20080FF13C08091E200F4
:102E50008E7F8093E2008091E20080618093E200A7
:102E60008091D80080628093D80019BC85E080935F
:102E70006B038091E10084FF2BC08091E20084FF0E
:102E800027C080E189BD82E189BD89B5982F917005
:102E900080FFFBCF8091D8008F7D8093D8008091F8
:102EA000E1008F7E8093E1008091E2008F7E80932D
:102EB000E2008091E20081608093E20080916C03E7
:102EC000882309F447C084E080936B0380916B03EF
:102ED0008091E10083FF27C08091E20083FF23C03F
:102EE0008091E100877F8093E10082E080936B0313
:102EF00010926C038091E1008E7F8093E1008091BD
:102F0000E2008E7F8093E2008091E20080618093F6
:102F1000E20042E060E080E00E94C5058091F000A0
:102F200088608093F000FF91EF91BF91AF919F91E6
:102F30008F917F916F915F914F913F912F910F9062
:102F40000FBE0F901F90189519BC10926B03109232
:102F50005E0374CF8091E30087FD93E090936B0351
:102F6000B5CF78941F921FB61F9211248F939F9311
:102F7000AF93BF9380915A0390915B03A0915C0340
:102F8000B0915D030196A11DB11D80935A039093EA
:102F90005B03A0935C03B0935D03BF91AF919F91DE
:102FA0008F911F901FBE1F9018959C014FB7F894EA
:102FB00080915A0390915B03A0915C03B0915D03F3
:102FC0004FBF821B930B08952FB7F89480915A033B
:102FD00090915B03A0915C03B0915D032FBF0895B6
:102FE0000F931F93CF93DF93C62FD42F022FFC0193
:102FF00085818823A9F06093B1030E94E417909320
:10300000B0038093AF03C77081E001C0880FCA95F9
:10301000EAF70E94740FDF91CF911F910F910895ED
:103020008091B103681334C08091AF039091B003D5
:103030000E94D517883C910558F510E21D0FCD1759
:10304000B9F080E28C0F883040F4C77081E001C095
:10305000880FCA95EAF70E946D0F183048F481E096
:103060009D2F977001C0880F9A95EAF70E94740F00
:1030700070E060E0802F0E943B12183060F6D7703D
:1030800081E001C0880FDA95EAF70E946D0FC3CF87
:10309000C77081E001C0880FCA95EAF7F6CFA6E1B4
:1030A000B0E0E5E5F8E10C94D7298091520388233C
:1030B00009F48AC080915003909151030E94D51762
:1030C000C29708F462C00E94E41790935103809362
:1030D000500385EB93E09093BC058093BB050E9461
:1030E0000A11882309F490C08091250382FD70C0E5
:1030F00083EE93E00E945B0C81EE93E00E945B0CF8
:1031000086EE93E00E945B0C809127039091280348
:10311000292F33272115310509F465C0C90128E09D
:10312000AC0174E0569547957A95E1F74115510544
:1031300011F02C5FCA01AC015695479556954795FD
:103140004115510511F02E5FCA0196958795892B7F
:1031500009F02F5F622F70E0ECE5F1E0CE010196FF
:103160008C013191311141C02A3008F442C0FC0178
:1031700010820E948D0BF80101900020E9F7CF0129
:1031800001977C010E151F05C8F18091B303909142
:10319000B403892BF1F580914F038823A9F00E9495
:1031A000B50600914B0310914C0320914D033091D3
:1031B0004E03601B710B820B930B6F3F7F4F8F4F42
:1031C0009F4710F40E9493126696E1E10C94F32954
:1031D00089EE93E00E945B0C8FED93E00E945B0C04
:1031E0008CEE93E08FCF20E09BCFDC013D93CD01AF
:1031F000B8CF20E2DC012D93CD01BBCFD8018D915A
:103200008D010E94AD0BBECF8FE993E00E945B0C55
:10321000BCCF80915203882309F4BDCF80914A032B
:103220008111B9CF0E94AE122091B3033091B40343
:103230002115310509F4AFCF80E041E050E0082FBF
:1032400010E07A01082E02C0EE0CFF1C0A94E2F78F
:10325000B70162237323672B11F48F5FF0CF909136
:10326000490390FF9CC0880F880F880F80934B0103
:1032700010924E01895F80934C0183E080934F014F
:1032800024E630E047E050E069E471E088E70E941E
:10329000BA27892B09F07FCFA80125E0440F551FDD
:1032A0002A95E1F78091490380FF8BC0E9E2F3E0C2
:1032B00080E2DF011D928A95E9F7E5EDF1E0FE8BF2
:1032C000ED8B01ED11E089EDA82E81E0B82E97E09D
:1032D000392E44244394AD89BE898D91BE8BAD8B2C
:1032E000F80121918F01240F352F311D2B543C4FB4
:1032F000E82FF0E0E75DFC4F90E080E0632C681A77
:10330000742C082E01C0770C0A94EAF76901812C0D
:10331000D6019D906D019720662D68196770562E15
:10332000062E000C770BB92D01C0BB0F5A94EAF79B
:103330007195619571096770772701C096946A95B8
:10334000EAF79B2A6081562E59285082839468E0C0
:103350008612DECF019631968830910579F68D89F7
:103360009E89A816B90609F0B6CF04E610E020E25F
:1033700030E049E253E060E488E70E94DB27892BD4
:1033800009F009CFE094F0948091B3039091B403D5
:10339000E822F922F092B403E092B303FCCE8295C6
:1033A000880F807680934B01980136952795369546
:1033B000279520934E01815E80934C0120934F010D
:1033C0005FCF4B545C4F04E610E020E230E0D3CFF7
:1033D0000E940A11882319F00E94E41708950E94A0
:1033E0008F11CB01089560911D03669570E04BE04D
:1033F00050E089E391E00E94722A892B19F481E060
:10340000809384020E94E81990937E0280937D024B
:1034100080918502846080938502089590911D03B8
:1034200090FF39C09170811137C0926090931D0355
:1034300080918502816080938502662391F02091BE
:103440001D0330911E0340911F0350912003609192
:1034500021037091220380912303909124030E9401
:10346000D61260911D03669570E04BE050E089E351
:1034700091E00E94722A892BB1F00E94270781E017
:103480008093800220E04091200360911F0380918F
:103490001E030E94FC120895863110F09A62C6CF76
:1034A000880F982BC3CF0E94F319E9CF80911D0399
:1034B0008695815009F485E161E00E940E1A089515
:1034C00080911D0386958F5F863108F081E061E071
:1034D0000E940E1A089590911D0390FF08C09695C2
:1034E000981728F0961718F40E94601A089561E062
:1034F0000E940E1A0895B0E0A0E0E1E8FAE10C9411
:10350000DE298C01FC018481882341F121E0408186
:1035100051816281738195810E94680BEC01FC01ED
:10352000E851FC47E730F105A8F5E750F54D0C945C
:103530002D2A26E241EE61EEC8010E94F01780912B
:103540000902877059F0F8018581882339F080914C
:10355000260382FF03C082E00E94190BCDB7DEB7BD
:10356000EAE00C94FA2927E245EE65EEE5CF26E283
:1035700041EE60EEE1CF27E245EE64EEDDCF26E2DC
:1035800041EE62EED9CF27E245EE66EED5CF28E2D6
:1035900041E0EBCFF8018581882309F4EEC3109256
:1035A000B103CE019057839708F0D3C384E090E035
:1035B0000E94A32A9093260380932503FE01E150E5
:1035C000F047E232F10520F4E050F54D0C942D2A3D
:1035D0008091250381608093250395C08091260307
:1035E0008860809326038FC0809125038260F3CF8B
:1035F000809125038460EFCF809125038860EBCF15
:10360000809126038160EDCF809126038260E9CF0F
:10361000809125038061DFCF809125038062DBCF1D
:10362000809125038064D7CF0E94A60C809125034A
:103630008068D1CF809125038C60CDCF8091260307
:103640008360CFCF809125038E7FC5CF80912603E5
:10365000877FC7CF809125038D7FBDCF80912503C4
:103660008B7FB9CF80912503877FB5CF80912603CB
:103670008E7FB7CF809126038D7FB3CF80912503B6
:103680008F7EA9CF809125038F7DA5CF80912503C3
:103690008F7BA1CF0E94A60C809125038F779BCFB3
:1036A00080912503837F97CF809126038C7F99CFCC
:1036B0008091250382FB992790F921E0922790FBC6
:1036C00082F990FB83F987CF80912603982F9095FC
:1036D00091708E7F892B90FB81F983CF9091250388
:1036E000892F8F7B96FF806476CF0E94A60C9091E5
:1036F0002503892F97FB87F980586DCF61E08EE015
:1037000090E00E94B92A609125037091260384E01D
:1037100090E00E94D72A0E94A60C11CF60E0EFCF64
:1037200090912503892F8F7E94FF806154CF9091D3
:103730002503892F8E7F90FF81604DCF90912603C6
:10374000892F877F93FF88604CCF85E311C385E382
:103750001DC380911D0380FF1EC0282F2E7F209344
:103760001D0330911E0340911F035091200360916F
:1037700021037091220380912303909124030E94DE
:10378000D6120E942707809185028160809385026E
:103790000E94D40FD4CE816080931D0361E0869592
:1037A0000E940E1ACCCE46E55AE160E67AE10E940C
:1037B0002107C5CE40E65AE166E57AE1F8CF42EC52
:1037C00053E16CEC73E1F3CF4CEC53E162EC73E149
:1037D000EECF48EA53E165EB73E1E9CF45EB53E106
:1037E00068EA73E1E4CF4EE853E16BE973E1DFCFC0
:1037F0004BE953E16EE873E1DACF46ED53E160EF58
:1038000073E1D5CF40EF53E166ED73E1D0CF61E0D6
:1038100081E0C6CF64E082E00E946B1A90CE6AE03D
:1038200085E0FACF64E18BE0F7CF61E085E1B8CFC6
:103830000E94A60CFFEF24E33CE0F1502040304012
:10384000E1F700C0000087E797E7909301088093B5
:10385000000888E19AE00FB6F894A895809360007C
:103860000FBE90936000FFCF6FEF7FEF90E080E09E
:103870000E94D72A0E9453128091260382FB882738
:1038800080F991E089270E947D16F8018581C08129
:10389000D181882309F44AC0CE010E94580AF82E2B
:1038A000682FCE010E94CC0ABE018F2D0E94E40831
:1038B0000E940309D82FC92FA82EF801C580B68011
:1038C000B2943FE0B322809109028770F1F0EC2CB2
:1038D000CC20E1F0892F807F803451F080E28D0F81
:1038E000883098F0B11004C0892F807E803269F052
:1038F0008091260382FF09C082E00E94190B80910B
:1039000009028770EE24E3948111E12CDC2ED2941D
:103910002FE0D222FBE0FD1508F46DC0ED2DF0E0A4
:10392000EE5DF44D0C942D2A80E0ADCFCE010E94C7
:10393000990AF82EB9CF2C2F2F70F22EC07F19F0D4
:10394000F29490EFF922CC20B9F0FF2069F080E2E8
:103950008D0F883010F0A11009C080911402F82A50
:10396000F09214020E94690C8D2F43C080911302C3
:10397000F82AF0921302F6CF8D2F0E943E11FF20FD
:10398000D1F1D05ED83010F0A11004C08F2D0E946C
:10399000210A06C0F09480911302F822F0921302DB
:1039A0000E94690C28C03C2F3F70F32EC07FC032AC
:1039B00019F0F29480EFF822AA2059F081E0A816BD
:1039C00009F479C0CC2009F485C0BB2009F447C0B4
:1039D000CBCF8091260382FD3EC0CC20B1F1FF20E9
:1039E00039F080911402F82AF09214020E94690CB6
:1039F00080E00E94AC112D2D2850330B243031056E
:103A000010F40E942D11EE20A9F08091090280FD92
:103A100011C0F80115828695869586950E94300B17
:103A2000C8010E947B1A8091090286958695869529
:103A30000E94070B20E0F80140815181628173816F
:103A4000848195810E94680B89CD80E00E943E119F
:103A5000FF2089F29BCFCC20A1F0B11004C08F2DA4
:103A60000E94740FC8CF91E0B912C5CF80911202A5
:103A70009F2D9823F91609F4BECFF82AF09212026E
:103A8000BACFB110B8CF8F2D0E946D0F9091120256
:103A90008F2D892329F08F2D809589238093120201
:103AA0008091E5019F2D982309F4A5CFF094F82289
:103AB000F092E501A0CFCC2029F0E5E0EB1508F469
:103AC0009ACFCDCFF4E0FB1508F495CF8F2D0E944F
:103AD0006D0F91CFBB20D1F329E3A21209C03FEFB4
:103AE00087EE93E0315080409040E1F700C0000045
:103AF0008D2F0E943E117FCF8C2F869586958370E7
:103B000069F0813009F077CF8D2F9C2F9370C11011
:103B100002C080E090E00E94C1066DCF8D2F9C2FE7
:103B20009370C11002C080E090E00E94E60663CF6F
:103B30008C2F837009F03FC0C1105DCF4D2F42958F
:103B400046954770440F440F2D2F2F7030E0042E00
:103B500002C0220F331F0A94E2F790E080E0D4FF06
:103B600009C08FE090E002C0880F991F4A95E2F7E4
:103B700080959095C695C695C370C23099F078F43B
:103B80004091150250911602C13039F0822B932BCF
:103B9000842395230E94400B2ECF242B352B822B80
:103BA000932BF8CF822B932B209115023091160284
:103BB00082279327EFCF8695CC2011F08C2F817030
:103BC000882309F418CF4D2F429546954770440F2E
:103BD000440F2D2F2F7030E0042E02C0220F331F10
:103BE0000A94E2F790E080E0D4FF09C08FE090E013
:103BF00002C0880F991F4A95E2F780959095C69567
:103C0000C695C370C23099F078F440912703509163
:103C10002803C13039F0822B932B842395230E94F3
:103C2000020BE9CE242B352B822B932BF8CF822B42
:103C3000932B209127033091280382279327EFCFDE
:103C4000CF70CC2029F08C2F0E94300B8D2F08CF05
:103C50008D2F0E946D0F8C2F0E94070BCCCE8D2FC5
:103C6000E2EFAE1699F1EA1570F0F0EFAF16D1F071
:103C700021EFA21691F0CC2009F45BC0B11074CEF4
:103C80008C2F8F7127C033EFA31639F194EFA9124F
:103C9000F2CF8091260382FD2EC08C2F8F71CC2015
:103CA000D9F218C0CC2069F0E4E0EB1508F4A3CEFB
:103CB000CF7181E090E002C0880F991FCA95E2F7AA
:103CC000B8CFF5E0FB1508F496CEF2CF8C2F8F71AC
:103CD000C110C2CF0E94300B8ECE90E080E0CC208D
:103CE00009F49DCFCF7181E090E002C0880F991F49
:103CF000CA95E2F794CFCC2089F0CF718C2F0E9427
:103D0000300B8091260382FF07C028E0C29FC001CC
:103D100011248360809309028C2FDCCF81E00E9404
:103D2000190B31E03B1508F066CE82E00E94190BBA
:103D300062CEBB2059F0893309F0DACE8FEF97EECF
:103D4000E3E081509040E040E1F7D0CE8C2F8F71BE
:103D500083CFC631FCE7DF07E1F4809114028A7A51
:103D600091E009F490E09093E4018111EECC89E2B6
:103D70000E94350A0E94690CE2CBC6312CE7D207BB
:103D800041F58091E4018111E2CC89E20E94280A88
:103D9000F1CFC3303CE7D30709F466CD50F4C11529
:103DA0009CE7D90709F444CDC130DC4709F462CD62
:103DB0006CCDCB35FCE7DF0709F4B6CDCC352CE76D
:103DC000D20709F459CDCA35DC4709F05ECD81E050
:103DD0005ACD809114028272FE01E052F847E5311B
:103DE000F10508F052CDE25DF44D0C942D2ACF93ED
:103DF000DF9380910802807F09F04DC08091070217
:103E0000882309F448C0E091AE0350917503C09136
:103E10000302D0910202609104027091050247E012
:103E20005E17C9F18E2F90E0E49FF0011124EA584B
:103E3000FC4F2481222391F1489FF001499FF00D0E
:103E40001124DF01AA58BC4F11962C9111972C1305
:103E500025C02C912D1322C015962C911597211158
:103E60001DC012962D913C91261B370B283C310525
:103E7000A8F4809108028F70806180930802E45852
:103E8000FC4F80818F708061808382E092E00E948D
:103E90007B1A0E944E0ADF91CF910895FC01319662
:103EA000E770BECFA4E1B0E0E8E5FFE10C94DC29C7
:103EB0008C0186E0F801DE011F9601900D928A9533
:103EC000E1F7F8018481E58092E0A92E92E0B92E15
:103ED00090910602911128C0882319F1EE20F1F08B
:103EE000C8010E94450BF82E8823C1F087E0F80135
:103EF000D50101900D928A95E1F7809106028130FB
:103F000031F480910202909103020E948C0A0E9477
:103F1000F71E8F2D6496ECE00C94F829C8010E94DE
:103F20007B1AFF24F394F5CFD080C18082809380E8
:103F3000F09007022091040230910502A401421B77
:103F4000530BFF2009F4D9C0483C510508F092C03A
:103F50008823F9F29091030280910802282F207F94
:103F600009F056C0C91214C090910202D91210C0B3
:103F7000E11048C08F7080618093080282E092E077
:103F80000E947B1A80910802F8018683F12CC1CF30
:103F9000E11038C06C2D8D2D0E9437056C2D8D2DB4
:103FA0000E943705E82E8111F1CFDF86C88A8F8500
:103FB00098890E948C0A292F22952F70243058F45A
:103FC0009F70223088F0992399F0F8019681907FB4
:103FD00079F4FE2C9ECF2A5F2F70223068F0C80142
:103FE0000E947B1AEF2CF5CF992311F0882389F3D7
:103FF000805E883070F3F3CF803F58F3815F833069
:1040000070F7E7CF80910802816080930802BECFED
:10401000C91207C090910202D91203C0EE2009F420
:104020008DC0C8010E94450B882309F477CFEE208C
:1040300009F474CF80910802803288F02091020246
:1040400030910302398728879B868A8690910602E1
:104050009C871D868E87CE0108960E947B1A87E07A
:10406000F801A2E0B2E001900D928A95E1F70E947A
:10407000F71E57CF90910802292F207F51F482E03C
:1040800092E00E947B1A87E0F50111928A95E9F788
:104090007DCF882309F43DCF809103028C1110C09D
:1040A00080910202D8120CC0E1100AC09683C801A8
:1040B0000E947B1A87E0F50111928A95E9F729CFD2
:1040C000C8010E94450B882309F428CFEE2009F48B
:1040D00025CF80910802803210F2209102023091A7
:1040E00003023A8329839C828B82909106029D83EE
:1040F0001E828F83CE010196B0CF483C5105D0F689
:10410000882309F40ECFFE2CEE2009F407CF80910E
:1041100003028C1120C080910202D8121CC0809131
:10412000080280FD0FC0982F907F61F08683903F3A
:1041300031F0982F907F905F8F70892B8683C80114
:104140000E947B1A87E0F801A2E0B2E001900D9294
:104150008A95E1F7DECEC8010E94450B81117FCF21
:1041600080910802816080930802C8010E947B1A36
:10417000D0CEABE1B0E0EFEBF0E20C94E4294E8B53
:104180005F8B688F798F8A8F9B8F192F9111109277
:1041900013021D8A86E0FE017696DE011F960190CD
:1041A0000D928A95E1F70A8D002341F021E04F85B9
:1041B000588969897A89C8010E94680B0B8B1C8B0E
:1041C00087E0FE013F96DE01189601900D928A95D8
:1041D000E1F7CE0108960E94521F81112AC087E0A4
:1041E000FE013896DE01119601900D928A95E1F755
:1041F0008C858823F1F02091750330E0C901019688
:10420000877099274091AE0348171906E9F097E0A7
:10421000929FD001939FB00D1124AA58BC4FFE016C
:10422000319601900D929A95E1F7809375030E9463
:104230004E0A17E08091AE0390917503891312C066
:104240006B96E4E00C94002A0E94A60C1092750371
:104250001092AE0387E0E2E0F2E0DF011D928A9562
:10426000E9F7E7CF819FC00111248A589C4F0E9433
:10427000521F882329F38091AE0390E00196877046
:1042800099278093AE03D6CFA3E1B0E0EAE4F1E250
:104290000C94DB298E01045F1F4F88E0D8011D922A
:1042A0008A95E9F780EAC82E81E0D82EF12CE12C1E
:1042B000AA24A394B12C2BEA822E21E0922EF6019F
:1042C00081916F018F3F09F442C0F894E82FE29585
:1042D000EF70F0E021A18F70A50102C0440F551FBF
:1042E0008A95E2F7CA01922F982B91A392A180950B
:1042F000892382A3789400C0E4EAF1E0712C31E0D4
:1043000021912F3F09F46BC0A22FA295AF70B0E0AE
:1043100090968C9190E02F7002C0959587952A9584
:10432000E2F780FD5CC0832F782A330F8E169F063C
:1043300039F7F601319780818F3F11F00E94DC0739
:1043400050EA5A95F1F7F801EE0DFF1D70828FEFDC
:10435000E81AF80AA4E0EA16F10409F0B0CF48E040
:1043600050E0B80185E592E00E947F2A009741F075
:1043700028E0F801A5E5B2E001900D922A95E1F759
:1043800000915E02892B69F181E080931B020E94FB
:10439000E41790931A028093190280911902909168
:1043A0001A020E94D517059700F110E0005A1D4F20
:1043B00044E050E065E572E0C8010E947F2AF12CDC
:1043C000892B51F084E0E5E5F2E0D80101900D92EF
:1043D0008A95E1F7FF24F39410921B0207C080E056
:1043E000A3CF80911B028111D8CFF12C0E940A111A
:1043F000E82EE0915E02882309F489C019821A82AE
:104400001B821C820E2F10E0005A1D4F80914E021D
:104410008A3008F046C04BED55E1BE016F5F7F4F1B
:10442000C8010E94D710882309F460C043E855E111
:10443000BE016F5F7F4FC8010E94D710882309F427
:1044400055C048E854E1BE016F5F7F4FC8010E942C
:10445000D710882309F44AC047E254E1BE016F5FD8
:104460007F4FC8010E94D710882309F43FC01092E3
:104470004E0280915D0290E044E050E0BE016F5F2B
:104480007F4F805A9D4F0E947F2A21E02093220275
:10449000892BF1F4E12C8E2D8F296396EDE00C949D
:1044A000F72980911C0290911D020E94D517843F2C
:1044B000914008F0B0CF80912202882359F384E024
:1044C000FE013196DF011D928A95E9F710922202D2
:1044D000E0915D02F0E0E05AFD4F89819A81AB8165
:1044E000BC8180839183A283B383D5CF80914E0218
:1044F0008F3F31F08F5F80934E028A3008F4B9CF3E
:104500000E94E41790931D0280931C02D4CFF0E028
:10451000E05AFD4F84E0A5E3B2E001900D928A9548
:10452000E1F764E070E085E392E00E940B0780937E
:1045300034024091790250E06091780270E06C584A
:104540007D4FCE0101960E948C2A898180933A0288
:1045500061E070E0CE0101960E940B078093390262
:1045600080903B0290903C02A0903D02B0903E02B1
:1045700080911E0290911F02A0912002B091210211
:1045800088169906AA06BB06D1F080921E02909268
:104590001F02A0922002B09221020E940A118111F2
:1045A0000EC00E94B506861A970AA80AB90A809218
:1045B0004F0290925002A0925102B09252028BE0B0
:1045C000EFE3F2E0DE01119601900D928A95E1F79A
:1045D0002981822F8695DA80CB80BC800A851B8555
:1045E00010924902112309F456CF10FF0AC090918E
:1045F0001D0320FF1AC0916090931D0360E00E948C
:104600000E1A11FF06C020E04B2D6C2D8D2D0E943F
:10461000FC1212FF04C00023A9F00E94F31913FF3B
:104620003ACF81E08093800236CF9E7F90931D0326
:104630000E942707809185028160809385020E94F5
:10464000D40FDFCF0E942707EACFA6E0B0E0EBE26D
:10465000F3E20C94E4290E94E4178C018091170284
:10466000909118028017910781F019821A820E9496
:10467000E417682F49815A81792F80E090E00E94E9
:10468000B92010931802009317022696E4E00C94C8
:10469000002A1F921FB61F9211248F939F93AF93EE
:1046A000BF9380915903811113C080915A03909157
:1046B0005B03A0915C03B0915D034196A11DB11D08
:1046C00080935A0390935B03A0935C03B0935D03C4
:1046D000BF91AF919F918F911F901FBE1F90189512
:1046E00000D000D000D0CDB7DEB785B7806885BFD9
:1046F00085B7806885BF84B7877F84BF0FB6F8947D
:10470000A89580916000886180936000109260009D
:104710000FBE80E890E00FB6F8948093610090930C
:1047200061000FBE8AED97E09093DB018093DA0180
:104730000E9456050E94F7058091E20084608093F4
:10474000E200789480916B038823A1F01091E90036
:104750001F709091EC00892F817090FD80E8182BDC
:104760001092E9008091E80083FD0E94BC0C1F704C
:104770001093E90082E084BD93E095BD9AEF97BD68
:1047800080936E0010924F021092500210925102CC
:104790001092520222982A9A579A5F9825E02A95F9
:1047A000F1F7000083B182FB882780F957985F9A60
:1047B00030EA3A95F1F780933001809130018823F7
:1047C00009F4BCC11092440189E1809345010E9423
:1047D0000A1181110E9460289091300181E0982790
:1047E00090937802482F491B4093540290913001D6
:1047F00080937902909130018093530226982E9AEB
:1048000025982D9A8FE891E00197F1F700C00000FC
:10481000209179024AE752E0FA018E2F841B821719
:1048200008F490C1809130018091300194E08111B1
:1048300090E090935E0284E0891B80935D0284E99E
:104840000E94DC0786E60E94DC0787E90E94DC07FD
:1048500086EC0E94DC0704EA11E0EBEAEE2EE1E0D0
:10486000FE2ED8018D918D018F3F11F00E94DC0743
:10487000E016F106B1F788E0E0E6F2E0DF01282F6C
:104880001D922A95E9F7E5E5F2E0DF011D928A9590
:10489000E9F790E080E00E94A32A863E9E4F11F047
:1048A0000E940F1682E090E00E94952A8093680291
:1048B00084E090E00E94A32A90932603809325032E
:1048C00083E090E00E94952A90E00E94400B1092B5
:1048D000490380E88093B2030E941A276BE070E0DE
:1048E00083E892E00E9469128823E9F180914903EC
:1048F00065E070E081FD32C18EE792E00E946912AE
:10490000882389F16DE070E08CE692E00E946912E4
:10491000882349F10E94B506605A75418F4F9F4F19
:1049200060934B0370934C0380934D0390934E031D
:10493000E5EBF3E080E092E0DF019C011D92215065
:104940003040E1F7F093BC05E093BB058FEF9FEF9C
:104950009093B4038093B30381E0809352038093D8
:104960004F0310924A0380915F0281117BC090E057
:1049700080E00E94A32A863E9E4F21F00E940F16DF
:104980000E940A1488E090E00E949D2A4B015C017D
:1049900084E290E00E94952A282F30E040E050E029
:1049A00060E070E080E090E000E20E94332A282975
:1049B00039294A295B2920931D0330931E03409314
:1049C0001F0350932003609321037093220380936D
:1049D0002303909324038091850283608093850252
:1049E0002E7F89F50E940A1488E090E00E949D2A9B
:1049F0006B017C0184E290E00E94952A282F30E030
:104A000040E050E060E070E080E090E00E94332AF7
:104A1000B22FA32FF42FE52F5B0197018601BC294C
:104A2000A12BFE29E32BB0931D03A0931E03F0934B
:104A30001F03E093200360932103B092220380932D
:104A40002303909324030E942E070E94270780913E
:104A50001D0380FF04C060E086950E940E1A81E06D
:104A600080935F020E940A11811102C00E94632894
:104A700081E391E0909356038093550358E1652EAE
:104A8000712C68E6C62E62E0D62E74E0A72EB12CFB
:104A900080916B0300E112E1853009F498C00E9417
:104AA000442109E612E040E6E42E42E0F42E21E73C
:104AB00032E0D701F80191918D912E173F0709F44B
:104AC00090C09817C1F30E940A11282E912CD7018B
:104AD0008D907D01F80131908F01381431F1512C06
:104AE000442443943824832D8421B9F02220A9F052
:104AF00059829A820E94E4179C838B83F1E0FD83A4
:104B000091E0842D882109F490E09E8349815A81A7
:104B10006B817C818D810E94B9205394440C27E0E5
:104B20005212E1CFF80131978082939438E09312CA
:104B3000CECF0E948F115524539458C089E18093A1
:104B4000440143CE83B186FB882780F91D9904C0B8
:104B500090E0892B819361CE92E0FBCF89E792E0D0
:104B6000CDCE80916B03843021F10E94931210927C
:104B7000590340E40FB6F894A895609260000FBE08
:104B80004093600083B7817F846083BF83B7816077
:104B900083BF7894889583B78E7F83BF0FB6F894D0
:104BA000A8958091600088618093600010926000F9
:104BB0000FBE80916A03882351F00E944421E0E6F1
:104BC000F2E08191811120C1CE16DF06D1F78091EC
:104BD0006B03853009F4C5CF0E94A60C0E942D11ED
:104BE0005ECF981370CF0E942523512C0E940A118A
:104BF00080918402882309F464C080918302E0914B
:104C00001D03E695E81BE0937F02823009F069C03E
:104C1000F0E0ED56FD4FE4910E2F10E031EBE32E66
:104C200030E1F32E80918002882361F0109280029F
:104C30000E94E81990937E0280937D021092820276
:104C4000109281020E94E819E0917D02F0917E02AB
:104C50009C012E1B3F0B2F3F3F4798F5209173027D
:104C60002223B1F0109273022091710230917202EE
:104C7000821B930B8F3F9F4758F4205D3A48309337
:104C80007202209371028091850288608093850270
:104C900080908102909082020E0F1F1F10937E025F
:104CA00000937D028DE792E0F701099580918102E2
:104CB00090918202892B29F4892819F081E0809350
:104CC0007302E12C912C80917902E81650F1992021
:104CD00009F48AC00E94A9110E944F180E94AE12C6
:104CE00087C0853061F4E695F0E0E057FD4FE49130
:104CF0000E2F10E02FE1E22E20E1F22E93CF85312E
:104D000049F4EEE8F2E00591149198E7E92E90E17C
:104D1000F92E88CF00ED17E080EBE82E86E0F82E24
:104D200081CF0E2D10E0E3B1E6FBEE27E0F91D99EF
:104D300053C080E08E2BD801A658BD4FEC919E2F1A
:104D40009370891709F446C0EE0FEE0FE82BEC9331
:104D5000F0907802FE0CEF70F0E0E555FE4F0A5837
:104D60001D4F8081D8019C91890F8C93812C8430B8
:104D70008CF0EF2DF0E0EC58FD4F80818F5F808349
:104D80000E940A11882E882349F16AE070E08AEABD
:104D90000E943B12F80180818D3F8CF4EF2DF0E0F2
:104DA000EC58FD4F8081815080830E940A11882E2B
:104DB0008823B9F06AE070E089EA0E943B12D801CA
:104DC0008C91082E000C990BB5010E94192AF8014C
:104DD00080839828E39477CF82E0ACCF88248394B3
:104DE000D9CF88248394EBCF0E944F18511076CFEF
:104DF0000E942D1190917C02891709F449CE80936D
:104E00007C020E94B50644CE09BD19BD09B400FE5E
:104E1000FDCF8091D8008F7D8093D8008091E000F5
:104E200082608093E0008091E00081FDFCCF0E94D1
:104E3000A60CCDCE1092B9008CE08093B8000895F6
:104E4000B0E0A0E0E6E2F7E20C94DD29B82EEB0139
:104E50000E94E4176C01EE24E394F12CC431D105D7
:104E600060F025E0E22EF12CCF3FDC0731F0CE01DF
:104E700064E170E00E94C2297B0184EAA82E94E8D4
:104E8000992E1092BC00A092BC000E94E4178C01E5
:104E90008091BC0087FF0DC08091B900887F883069
:104EA000F9F08091B900887F8031D1F00FEF1FEFCA
:104EB00008C0C8010E94D517E816F90648F70EEF9A
:104EC0001FEFCF3FDC07E9F2C6010E94D517C817D4
:104ED000D907B8F6C801CDB7DEB7EBE00C94F929D5
:104EE000B092BB009092BC000E94E4178C018091AC
:104EF000BC0087FF0AC08091B900887F883111F01B
:104F00008034A1F610E000E0E5CFC8010E94D5177B
:104F1000E816F90660F7D3CF0F931F93CF93DF9373
:104F2000EB018093BB0084E88093BC000E94E417EF
:104F30008C018091BC0087FF11C02091B900287FAF
:104F400081E090E0283211F490E080E09195819525
:104F50009109DF91CF911F910F910895CF3FDC0709
:104F600041F3C8010E94D517C817D90710F78EEF73
:104F70009FEFEFCFB0E0A0E0E0ECF7E20C94E02987
:104F80006B018A017901B9010E942027E6010C0D0D
:104F90001D1DC017D10711F097FF08C024E9209309
:104FA000BC00CDB7DEB7E8E00C94FC29B7018991CD
:104FB0000E948C27EECFB0E0A0E0E1EEF7E20C9487
:104FC000E029C62F6A017901B8010E94202797FDC8
:104FD0000CC0B8018C2F0E948C27E601EC0CFD1C44
:104FE000CE15DF0511F097FF08C024E92093BC001F
:104FF000CDB7DEB7E8E00C94FC29B80189910E9496
:105000008C27EECF84E98093BC0008958EE14A9B03
:1050100002C08150E1F74A9BFECF08955A9880E282
:105020008A95F1F75A9A0895FC013BE03A95F1F719
:1050300098E020E080E031E040E14A95F1F7880F08
:105040004A9B02C08160232742E04A95F1F70000A5
:1050500040E14A95F1F7915079F790E19A95F1F78F
:1050600099B132E03A95F1F7000040E14A95F1F745
:1050700092FB992790F992272081920F90830895AF
:10508000A1E0B0E0E6E4F8E20C94E22919828C0198
:105090007C01E60EF11C0E151F0541F481E099819B
:1050A000911180E02196E6E00C94FE290E940628EA
:1050B000CE0101960E941428F80181938F01EBCF55
:1050C000529A5A9A089552985A9AEA9AE9E6F0E062
:1050D00080818F7C808308956150770B91E001C0BF
:1050E000990F6A95EAF720E031E0911108C0222378
:1050F00091F05A9A80E28A95F1F75A980895492FCB
:10510000482339F05A9A232740E24A95F1F79695B9
:10511000ECCF5A98F9CF5A98EDCFFF920F931F9387
:10512000CF93DF93EC018C01060F111DC017D1073F
:1051300029F4CDB7DEB7E5E00C94FF29F9900E9481
:105140000E2868E08F2D0E946C28F0CF1F920F92DE
:105150000FB60F9211240F931F932F933F934F93EA
:105160005F936F937F938F939F93AF93BF93EF93CF
:10517000FF93CF93DF930F92CDB7DEB719820E94D2
:105180000628CE0101960E941428082F0695069540
:105190000695282F22952570902F9570290F922F14
:1051A000937026952695920F982797708981982B52
:1051B00009F05CC0073008F059C080E18A95F1F72A
:1051C0005A9A529A82E08A95F1F700C05A9888E07C
:1051D000089F80011124D801A050BF4F1696ED9171
:1051E000FC9117973097A9F060919E0170919F01F3
:1051F00014962D913C911597260F371F11968D917E
:105200009C911297680F791F13964C9113978C916C
:105210000995F801E050FF4F6381662351F020911A
:105220009E0130919F0184819581820F931F0E947E
:105230008D280E940E2880E18A95F1F75A9852989D
:105240005A9A80E18A95F1F7F801E050FF4F6081AA
:10525000662351F020919E0130919F0181819281BE
:10526000820F931F0E9440280E9406280F90DF9112
:10527000CF91FF91EF91BF91AF919F918F917F91CE
:105280006F915F914F913F912F911F910F910F90CF
:105290000FBE0F901F9018950F931F93CF93DF931E
:1052A000EC0107970CF04CC0F894529A5A9885E09C
:1052B0008A95F1F700009C2F969595708C2F85703C
:1052C000980F892F83709695969523E0CC0FDD1F5C
:1052D0002A95E1F7980F8E01092B0E940E2800C035
:1052E00068E0802F0E946C2880E18A95F1F752983F
:1052F0005A9A4A9B1EC087E090E04A991CC0FE0162
:10530000E050FF4F63816623F9F020919E013091B8
:105310009F0184819581820F931F0E9440288111F3
:1053200013C0529A5A9A7894DF91CF911F910F919E
:10533000089500C0DECF019729F4529A5A9A7894C2
:1053400080E0F2CF00C0D9CF0E94062880E28A9583
:10535000F1F75A98529A80E18A95F1F7C050DF4FE1
:105360006881662351F020919E0130919F018981CF
:105370009A81820F931F0E948D280E940E28789494
:1053800081E0D2CFAA1BBB1B51E107C0AA1FBB1FE4
:10539000A617B70710F0A61BB70B881F991F5A95C1
:1053A000A9F780959095BC01CD0108952F923F9269
:1053B0004F925F926F927F928F929F92AF92BF9225
:1053C000CF92DF92EF92FF920F931F93CF93DF93D1
:1053D000CDB7DEB7CA1BDB0B0FB6F894DEBF0FBE2E
:1053E000CDBF09942A88398848885F846E847D847B
:1053F0008C849B84AA84B984C884DF80EE80FD807D
:105400000C811B81AA81B981CE0FD11D0FB6F894F2
:10541000DEBF0FBECDBFED010895991B79E004C03A
:10542000991F961708F0961B881F7A95C9F78095E3
:10543000089597FB072E16F4009407D077FD09D046
:105440000E94C22907FC05D03EF4909581959F4F9C
:105450000895709561957F4F0895EE0FFF1F059099
:10546000F491E02D0994002E083090F0982F872FAA
:10547000762F652F542F432F322F22270850F4CF39
:10548000220F331F441F551F661F771F881F991F48
:105490000A95B2F7002D089597FD1094002E08305C
:1054A00098F00850232F342F452F562F672F782F31
:1054B000892F912DF4CF15949795879577956795BA
:1054C00057954795379527950A95AAF71124002DEA
:1054D0000895FB01DC0102C005900D92415050403F
:1054E000D8F70895FC014150504030F00190061665
:1054F000D1F73197CF010895882799270895FB01A7
:10550000DC0104C08D910190801921F4415050407C
:10551000C8F7881B990B0895FB01DC0102C00190BC
:105520000D9241505040D8F70895F999FECF92BDA1
:1055300081BDF89A992780B50895A6E1B0E044E0CE
:1055400050E00C94DF2AA8E1B0E042E050E00C9477
:10555000DF2ADC01A40FB51F4150504048F0CB01B9
:10556000840F951F2E910E94BA2A41505040D0F7C7
:105570000895262FF999FECF92BD81BDF89A019723
:1055800000B4021639F01FBA20BD0FB6F894FA9A8B
:10559000F99A0FBE08950396272F0E94BA2A0E94F7
:1055A000B92A252F0E94BA2A242F0C94BA2A0196D0
:1055B000272F0E94BA2A0C94B92ADC01CB01FC01E6
:1055C000F999FECF06C0F2BDE1BDF89A319600B45C
:1055D0000D9241505040B8F70895F894FFCF9B0DBD
:1055E000C30D5B0FC30D5B0FF60D170E5B0F140F92
:1055F000210FB71ABB1A991AB31ABF1AC31AC71ABE
:10560000221B971B2A1BF41AF81A2E1BFC1A321B9A
:105610003E1B081B901B0C1B421B101B461B6E1BCA
:10562000141B4A1B751B1A1B501B581B001B361BD7
:10563000041B3A1B1E1B541B641B7E1B8E1BEE1A85
:10564000261B9E1B9B1C9B1CD31CD31C7C1DFB1C64
:10565000FB1CFB1C981D201E2F1E2F1EA91BD31BDD
:10566000DA1BDF1BE41BE91BEE1BF31BF81BFD1B06
:10567000021C071C9F1A0A1C0F1C9F1A9F1A9F1AB4
:06568000121C151C9F1A0C
:10568600000000010000000000000004010000000E
:1056960000000001050000000000000106000000F7
:1056A60004070000000000000B0B000000000000D3
:1056B60001B206C00FB106B90F010B0C0D0E0F108B
:1056C6001112131400320032320021007F2200032F
:1056D600013031323334353637383900204C617970
:1056E60065723A2000818283E200E900EA00B50093
:1056F600B600B700CD008301CC008A019201940167
:105706002102230224022502260227022A02B300CE
:10571600B4006F0070009F01CB019F02A00234020B
:10572600946697C6F4F5F6F731333200FF010001AF
:105736000000FFFF0000010001FF0000010202025D
:105746000505050505050B0B0B0B0B0B0B0B0B0BC7
:0A57560015000810181810080000D4
:00000001FF
